:1000000090600020010100000301000005010000D4
:1000100007010000000000000000000000000000D8
:10002000000000000000000000000000551C00005F
:100030000000000000000000CD1C0000551D000065
:100040000F01000011010000130100001501000064
:1000500017010000190100001B0100001D01000034
:100060001F01000021010000230100002501000004
:1000700027010000290100002B0100002D010000D4
:100080002F010000310100003301000035010000A4
:1000900037010000390100003B0100003D01000074
:1000A0003F01000041010000430100004501000044
:1000B00047010000490100004B0100004D01000014
:1000C0004F010000510100005301000055010000E4
:1000D00057010000590100005B0100005D010000B4
:1000E0005F01000061010000630100006501000084
:1000F00067010000690100006B0100006D01000054
:1001000036E0FEE7FEE7FEE7FEE7FEE7FEE7FEE796
:10011000FEE7FEE7FEE7FEE7FEE7FEE7FEE7FEE7B7
:10012000FEE7FEE7FEE7FEE7FEE7FEE7FEE7FEE7A7
:10013000FEE7FEE7FEE7FEE7FEE7FEE7FEE7FEE797
:10014000FEE7FEE7FEE7FEE7FEE7FEE7FEE7FEE787
:10015000FEE7FEE7FEE7FEE7FEE7FEE7FEE7FEE777
:10016000FEE7FEE7FEE7FEE7FEE7FEE7FEE700004C
:1001700027498D4627482849284A00F037F828485B
:100180002849294A00F032F828482949294A00F02C
:100190002DF8294829492A4A00F028F829482A49EF
:1001A0002A4A00F023F82A482A492B4A00F01EF870
:1001B0002A482B49002200F024F82A482A49091A23
:1001C00000220260043001601C481D49884205D0AD
:1001D0000268043003B4904703BCF7E7002086466A
:1001E000EC4600200021214A9047FEE7884207D0D4
:1001F000521A05D0037801300B700131013AF9D160
:100200007047884202D002700130FAE77047000060
:100210009060002038420000000000201C000020F8
:100220007002000070020000C03F00005442000055
:100230009060002090600020C03F0000C03F0000A0
:10024000C03F0000C03F0000C03F0000C03F0000B2
:10025000C03F0000C03F0000384200001C000020EA
:10026000905F0020905F002010600020710200006D
:1002700000B581B000F022F900F062F9094B1B686B
:1002800000930948094B1968094B1A68094B1B6808
:1002900000F050F94FF0010000F00EF801F006FCFC
:1002A000FEE700BF0C000020C03F0000000000205F
:1002B000040000200800002000B585B040F205329F
:1002C000C0F2000244F23001C0F2000140F21C030F
:1002D000C2F20003009004A801904FF000000290C9
:1002E000039010464FF0500201F0E2FAB0F1FF3FE8
:1002F00005D144F23800C0F2000000F01BF905B04F
:1003000000BD00BF70B581B000F052FF01AC44F8F1
:10031000040D054D42F21076284600F00BF96846B0
:10032000314601F0EDF9F7E760400000704700BF8B
:10033000022904BF4CF2C060C0F22D0012D0032984
:1003400008BF47F230500DD041B90F2806D844F20B
:100350006C03C0F2000353F8200003E041F60030C4
:10036000C0F2B700704700BFF0B54EF20003C4F210
:100370000F031C6E1E6F3746002E23DA16F4006F33
:1003800004BF4CF20025C0F6EB3506D0C4F3831051
:10039000C6F30211FFF7CCFF054614F4800F1FBF10
:1003A00040F20003C2F20003C6F3C552013219BF86
:1003B000B5FBF2F21A6040F20003C2F2000308BF7C
:1003C0001D6022E014F4006F04BF4CF20025C0F65B
:1003D000EB3506D0C4F38310C4F30111FFF7A8FF77
:1003E000054614F4800F1FBF40F20003C2F2000361
:1003F000C4F3C352013219BFB5FBF2F21A6040F2E6
:100400000003C2F2000308BF1D6014F4801F1DD05A
:10041000C4F3424001F0BCFC02460B464FF0000022
:100420004FF0804101F032FF02460B4601F032FDF1
:1004300001F0C0FC40F20003C2F20003402828BFD4
:1004400040201A68B2FBF0F0586005E040F200036B
:10045000C2F200031A685A60002F12DA16F4005F25
:100460001DBF40F20003C2F200039D6040F2000392
:1004700001BFC2F2000342F20042C0F2F4029A60ED
:1004800011E014F4005F1DBF40F20003C2F200034C
:100490009D6040F2000301BFC2F2000342F200423D
:1004A000C0F2F4029A6040F20003C2F2000341F28B
:1004B0000022C0F27A02DA60F0BD00BF00B54EF251
:1004C0000003C4F20F0342F61002C0F280721A67F2
:1004D00042F6D122C0F28E721A6642F68232C0F221
:1004E0008E121A6642F60002C0F280721A6740F657
:1004F0008232C0F28E121A6640F60002C0F280729A
:100500001A6740F68232C0F2CE121A661A46136D8E
:1005100013F0400FFBD04EF20003C4F20F0340F281
:100520008232C0F2CE121A664FF0F0621A67FFF7FD
:100530001BFF00BD0FB44FF0010004B0704700BFB7
:10054000F0B583B040F20003C2F2000318684DF624
:100550008363C4F21B33A3FB00244FEAD45444F654
:100560000002C0F2E81202FB14074FEAC707A3FB20
:1005700007274FEAD74707F101074FEA57074FEA26
:10058000800007EB8413B0FBF3F044F2AC05C0F23B
:10059000000548F28046C0F21E06009001F0F0FB14
:1005A00001F01EFC0FA30CCB01F0B8FD4FF00002D0
:1005B00040F20003C4F2590301F06CFC01F02CFC82
:1005C00001F00EFC019002912846314622463B463E
:1005D000FFF7B0FF4CF20003C4F200035C629F62BD
:1005E00003B0F0BD2D431CEBE2360ABF00F1080357
:1005F00043604FF0FF328260C36003614FF000033D
:10060000036070474FF000030361704743685A6806
:100610004A6042688A605A68916059604160086126
:10062000036803F101030360704700BFD1F800C005
:10063000BCF1FF3F08BF03690AD000F108035A6804
:100640001268944504D35B685A6812689445FAD2DC
:100650005A684A6091608B6059600861036803F1D1
:1006600001030360704700BF436882689A60836833
:1006700042685A6003695A68824204BF82685A60BD
:100680004FF0000202611A6802F1FF321A607047EF
:10069000806B7047806BD0F1010038BF002070473D
:1006A000826BC36B9A4214BF00200120704700BFC9
:1006B00045F63C73C2F200031B6843B14FF00103DF
:1006C00045F63C7CC2F2000C5CF833204AB945F692
:1006D0003C72C2F2000242F8331002EBC3035860CE
:1006E00003E003F101030A2BEED1704710B5044675
:1006F00045F63C73C2F200035B68984208BF0022D3
:1007000008D045F63C73C2F200034FF00102D968ED
:100710008C4208D145F63C73C2F200034FF0000151
:1007200043F8321005E002F1010203F108030A2A3E
:10073000EDD1206801F0ECF9204601F0E9F910BD97
:1007400010B5044601F0A6FAA46B01F0B1FA2046F8
:1007500010BD00BF00B5036873B1C268036C1344D9
:10076000C3604268934224BF0368C360C368026CDD
:100770000846194602F006FA00BD00BF30B504462F
:1007800015464FF0A00080F31188A36BDBB1204623
:10079000FFF7E0FFA36B03F1FF33A363636CB3F1D7
:1007A000FF3F1EBF0133636401230CD1236943B1B2
:1007B00004F1100000F0B0FB18B14FF001032B6002
:1007C00001E04FF001034FF0000080F3118818465C
:1007D00030BD00BF30B5044601F05CFAA36C002BBD
:1007E00012DD636A83B104F1240501E0636A5BB141
:1007F000284600F091FB08B100F0ECFAA36C03F17D
:10080000FF33A364002BF1DC4FF0FF33A36401F04E
:100810004FFA01F03FFA636C002B12DD236983B1BC
:1008200004F1100501E023695BB1284600F074FB78
:1008300008B100F0CFFA636C03F1FF336364002B5F
:10084000F1DC4FF0FF33636401F032FA30BD00BFDA
:100850002DE9F04F85B0044600910292019300F11A
:10086000240A4FF0000603AF4FF0010BB1460DF123
:10087000080801F00FFAA36B43B3E568204600991E
:10088000FFF768FF019B9BB9A36B03F1FF33A363E1
:10089000236813B900F0C6FA606023698BB104F1D4
:1008A000100000F039FB01280BD101F0EBF908E052
:1008B000E560636A2BB1504600F02EFB08B101F0F1
:1008C000E1F901F0F5F94FF001004EE0029B23B988
:1008D00001F0EEF94FF0000047E01EB9384600F095
:1008E0006FFA5E4601F0E4F900F0C2F901F0D2F9C6
:1008F000636CB3F1FF3F08BFC4F84490A36CB3F13D
:10090000FF3F08BFC4F8489001F0D2F9384641468D
:1009100000F0E4FB10BB01F0BDF9A56B01F0C8F9D4
:10092000B5B9236833B901F0B5F9606800F0AAFAE7
:1009300001F0BEF95046029900F056FC2046FFF740
:1009400049FF00F0D9FC002893D101F09BF990E712
:100950002046FFF73FFF00F0CFFC8AE72046FFF775
:1009600039FF00F0C9FC4FF0000005B0BDE8F08F82
:1009700070B504460E46456800F054FA854206D12B
:10098000E36803F10103E3604FF001000BE0204650
:100990004FF0000132460B46FFF75AFF012802BF15
:1009A000E3680133E36070BD10B50446036C4BB9D6
:1009B0000368002B26D1406800F03CFA4FF000039A
:1009C00063601FE06AB980681A4602F0DBF8A2682B
:1009D000236C1344A3606268934213D32368A3601B
:1009E00010E0C0681A4602F0CDF8236CE268C3EB51
:1009F0000203E360226893423FBF236C6268C3EB4B
:100A00000203E360A36B03F10103A36310BD00BF06
:100A100030B5044615464FF0A00080F31188A06B56
:100A2000E26B904228BF002318D220461A46FFF7F7
:100A3000BBFFA36CB3F1FF3F1EBF0133A3640123CF
:100A40000CD1636A43B104F1240000F065FA18B1D7
:100A50004FF001032B6001E04FF001034FF0000065
:100A600080F31188184630BD2DE9F04F85B004465B
:100A700000910292019300F1100B4FF000070DF16D
:100A80000C08B9460DF1080A01F004F9A26BE36BFA
:100A90009A4213D220460099019AFFF785FF636AB4
:100AA0003BB104F1240000F037FA012801D101F034
:100AB000E9F801F0FDF84FF0010048E0029B23B98E
:100AC00001F0F6F84FF0000041E027B9404600F091
:100AD00077F94FF0010701F0EBF800F0C9F801F0E9
:100AE000D9F8636CB3F1FF3F08BFC4F84490A36C1E
:100AF000B3F1FF3F08BFC4F8489001F0D9F8404671
:100B0000514600F0EBFAD8B901F0C4F8A66BE56BDA
:100B100001F0CEF8AE420DD15846029900F064FBC8
:100B20002046FFF757FE00F0E7FB0028ACD101F0AC
:100B3000A9F8A9E72046FFF74DFE00F0DDFBA3E78B
:100B40002046FFF747FE00F0D7FB4FF0000005B04E
:100B5000BDE8F08F30B50446456800F063F9854282
:100B600018BF002010D1E36803F1FF33E36013B135
:100B70004FF0010008E020464FF000010A460B4606
:100B8000FFF772FF4FF0010030BD00BF30B54FF0EE
:100B90004C0000F0DDFF0446E0B14FF00005456079
:100BA00005608560C56085634FF00103C36305641C
:100BB0004FF0FF334364836400F11000FFF716FD2C
:100BC00004F12400FFF712FD204629462A462B4651
:100BD000FFF74AFF204630BDF0B505460E4610B976
:100BE0004FF000042CE04FF04C0000F0B1FF044641
:100BF00030B305FB06F707F1010000F0A9FF206004
:100C0000C8B1074467604FF00003A363A06005F11B
:100C1000FF3306FB0300E060E56326644FF0FF331B
:100C20006364A36404F11000FFF7E0FC04F1240006
:100C3000FFF7DCFC04E0204600F06AFF4FF0000400
:100C40002046F0BD40F22003C2F2000342699A42FE
:100C500008D1806A054B984204D0D0F1010038BF1A
:100C6000002001E04FF00000704700BF340000207A
:100C700040F22003C2F200039A6A02F101029A6272
:100C8000704700BF40F22003C2F20003D86A7047E9
:100C900040F22003C2F20003186B704740F22003B9
:100CA000C2F200039B6A6BB940F22003C2F2000358
:100CB0005A6B03F1380302EB820203EB82031B68D9
:100CC0004BB11AE040F22003C2F200034FF00102E0
:100CD000C3F89C2073E040F22003C2F2000303F14A
:100CE00038015A6B02F1FF325A635A6B02EB8202EF
:100CF00001EB82021268002AF3D040F22002C2F215
:100D00000002516B02F1380201EB810102EB810319
:100D10005A6852685A6003F108018A4204BF526857
:100D20005A605B68DA6840F22003C2F20003C3F83D
:100D3000A020D3F8A430002B41D040F22003C2F20F
:100D40000003D3F8A02040F21003C2F20003126C9B
:100D50001B689A4233D040F22003C2F20003D3F85A
:100D6000A82002F10802D3F8AC3093421FD940F218
:100D70002003C2F20003D3F8A020116C40F210024D
:100D8000C2F200021160D3F8A820D86A1060D3F82C
:100D9000A82002F10402C3F8A820D3F8A82011600B
:100DA000D3F8A82002F10402C3F8A82007E040F21B
:100DB0002003C2F200034FF00002C3F8A4207047E2
:100DC00040F22003C2F20003D3F8B0200260DB6AD5
:100DD0004360704740F22003C2F200034FF001026B
:100DE000C3F89C20704700BF0378A52B18BF0023D1
:100DF00008D14FF0000303F101039BB210F8012F5B
:100E0000A52AF8D04FEA9300704700BF00B528B973
:100E100040F22003C2F20003D3F8A000006BFFF7FA
:100E2000E3FF00BD40F22003C2F20003D3F8A000AC
:100E3000704700BF30B510B30446C26A436C9A4293
:100E40001DD000F104052846FFF70EFC606CE0623F
:100E5000C0F10503A36140F22003C2F200035B6B03
:100E6000984282BF40F22003C2F20003586300EBB5
:100E70008000034B03EB80002946FFF7C7FB30BD22
:100E80005800002030B5044640F22003C2F20003AF
:100E9000D3F8A030C26ADB6A9A4239D240F220030A
:100EA000C2F20003D3F8A020D26AC2F10502826127
:100EB00003F13803C26A02EB820203EB8202436948
:100EC00093421DD100F104052846FFF7CDFB40F207
:100ED0002002C2F20002D2F8A030DB6AE362526B59
:100EE000934282BF40F22002C2F20002536303EB3E
:100EF0008303084A02EB83002946FFF787FB07E0DC
:100F000040F22003C2F20003D3F8A030DB6AC362D0
:100F100030BD00BF5800002030B5036813B94FF052
:100F2000000401E0C368DC6804F118052846FFF7F7
:100F30009BFB40F22003C2F200039B6AD3B904F189
:100F400004052846FFF790FBE06A40F22003C2F256
:100F500000035B6B984282BF40F22003C2F20003A1
:100F6000586300EB80000C4B03EB80002946FFF731
:100F70004DFB03E009482946FFF748FB40F22003F8
:100F8000C2F20003D3F8A030E06ADB6A984234BFB3
:100F90000020012030BD00BF580000203400002098
:100FA000F0B540F22003C2F200039B6A002B49D146
:100FB00040F22003C2F20003DA6A02F10102DA62AF
:100FC000DB6A73BB40F22003C2F20003D3F8B42003
:100FD000D3F8B810C3F8B410C3F8B820D3F8B020D1
:100FE00002F10102C3F8B0201BE0EB6A62689A428A
:100FF00032D804F104063046FFF736FBA36A1BB172
:1010000004F11800FFF730FBE06A6B6B984288BF71
:10101000686300EB800007EB80003146FFF7F6FACB
:1010200005E040F22005C2F2000505F13807D5F8C9
:10103000B4301B6883B1D5F8B430DB68DC68002CB1
:10104000D3D109E040F22003C2F20003D3F8BC2060
:1010500002F10102C3F8BC20F0BD00BF2DE9F04150
:101060000446FFF7EFFD012818BF00272FD140F2FB
:101070002003C2F200039B6A13BBE76A40F220051B
:10108000C2F20005D5F8A030D3F82C8004F1040694
:101090003046FFF7E9FAE06A6B6B984282BF40F294
:1010A00020032B465863474534BF0027012700EB38
:1010B0008000084B03EB80003146FFF7A7FA06E0FB
:1010C00004F118010448FFF7A1FA4FF00007384671
:1010D000BDE8F081580000203400002030B50446FF
:1010E0000D4600F0D7FD2A68B2F1FF3F08BF00248B
:1010F0002BD040F22003C2F20003D3F8B0302168B5
:10110000994207D040F22003C2F20003DB6A616813
:10111000994218D940F22003C2F20003D96A6368E9
:10112000C3EB01018A420ED940F22001C2F2000154
:10113000C96AC1EB03031A442A602046FFF740FE48
:101140004FF0000401E04FF0010400F0B1FD204633
:1011500030BD00BF10B500F09DFD40F22004C2F28A
:1011600000044FF00003C4F8A43000F0A1FDD4F84F
:10117000A800D4F8C030C3EB000010BD30B5044661
:101180000D4600F087FD40F22003C2F20003C3F8D1
:10119000A840C3F8C040A5F108052C44C3F8AC40F2
:1011A0004FF00102C3F8A42000F082FD30BD00BF63
:1011B00010B500F06FFD40F22003C2F20003DC6ABC
:1011C00000F076FD204610BD10B5044600F062FD2B
:1011D0002CB940F22003C2F20003D3F8A040E46A25
:1011E00000F066FD204610BD30B50D4640F22004EB
:1011F000C2F20004D4F8A01001F11801FFF716FAAA
:10120000D4F8A00000F10400FFF72EFAB5F1FF3F7B
:1012100007D12046D4F8A01001F10401FFF7F6F938
:1012200024E040F22003C2F20003DA6A1544D3F846
:10123000A0205560DB6A9D420CD240F22003C2F22E
:101240000003D3F8B800D3F8A01001F10401FFF7B0
:10125000EDF90BE040F22003C2F20003D3F8B40032
:10126000D3F8A01001F10401FFF7E0F930BD00BF91
:101270002DE9F04F86B004900D4652B205924B68AE
:101280005B684B6001F10802934204BF5B684B60EE
:101290004B68DB68039301F1080840F2200A5346CB
:1012A000C2F20003994603F1C40644F2C80B5F463C
:1012B000C0F200076B685B686B60434504BF5B6806
:1012C0006B606B68DC68206BFFF78EFD04F1340205
:1012D000E16A236C00910190029330463946059BE8
:1012E00001F0D8FC0498314601F09AFC039B9C4223
:1012F000E0D106B0BDE8F08F2DE9F04100F0CAFC66
:1013000040F22003C2F200039A6A02F1FF329A62AD
:101310009B6A002B67D140F22003C2F200031B6BD3
:10132000002B60D04FF0000740F22005C2F200050C
:1013300005F138081BE004F11800FFF795F904F1F6
:1013400004063046FFF790F9E06A6B6B984288BF5D
:10135000686300EB800008EB80003146FFF756F928
:10136000D5F8A030E26ADB6A9A4228BF01276B6990
:101370001BB12B6ADC68002CDDD140F22003C2F2E5
:101380000003D3F8BC30BBB140F22003C2F200032B
:10139000D3F8BC30D3B140F22004C2F20004FFF70E
:1013A000FFFDD4F8BC3003F1FF33C4F8BC30D4F8EF
:1013B000BC30002BF3D109E0012F07D040F220030D
:1013C000C2F20003D3F89C30012B0CD140F2200371
:1013D000C2F200034FF00002C3F89C2000F052FC60
:1013E0004FF0010401E04FF0000400F061FC2046E2
:1013F000BDE8F081F0B50646FFF73AFC4FF0000378
:10140000337044F2DC01C0F20001304601F008FC08
:1014100040F22003C2F20003D3F8F85005F10105B1
:1014200005EB850403EB840404F124044FF0520718
:1014300005F1FF35214623681BB130463A46FFF7D8
:1014400017FFA4F11404002DF2D140F22003C2F2E0
:101450000003D3F8B4301B6853B140F22003C2F24A
:101460000003D3F8B41030464FF04202FFF700FFFC
:1014700040F22003C2F20003D3F8B8301B6853B126
:1014800040F22003C2F20003D3F8B81030464FF008
:101490004202FFF7EDFE40F22003C2F20003D3F850
:1014A000FC302BB130460B494FF04402FFF7E0FE11
:1014B00040F22003C2F200031B6843B140F2200156
:1014C000C2F2000130464FF05302FFF7D1FEFFF7A2
:1014D00013FFF0BD1C01002070B50446002837D072
:1014E00040F22003C2F20003D3F8A03098422FD07C
:1014F00000F0D0FB2046FFF7A5FB012826D104F120
:1015000004063046FFF7B0F8E36A40F22002C2F268
:101510000002526B934282BF40F22002C2F20002EC
:10152000536340F22005C2F2000505F1380203EBD7
:10153000830302EB83003146FFF768F8D5F8A0304B
:10154000E26ADB6A9A4201D300F09CFB00F0B0FB38
:1015500070BD00BF70B5044600F09CFB40F2200354
:10156000C2F20003D3F8A0309C4208BF002400D090
:1015700034B940F22003C2F20003D3F8A05000E0D7
:10158000254605F104063046FFF76EF8AB6A1BB13D
:1015900005F11800FFF768F840F22000C2F20000E1
:1015A0003146FFF733F800F083FBDCB940F220034B
:1015B000C2F20003D3F8103113B100F063FB11E065
:1015C00040F22003C2F200031B6B012B08D140F252
:1015D0002003C2F200034FF00002C3F8A02001E094
:1015E000FFF75CFB70BD00BF70B50546042934BF32
:1015F0000E46042600F04EFB40F22003C2F2000328
:10160000D3F8A0309D4208BF002500D035B940F284
:101610002003C2F20003D3F8A04000E02C46636C24
:10162000B34235D003D2003D18BF012503E0D5F108
:10163000010538BF0025E26A934208BFE66266648E
:10164000C6F10506A66103EB8303134A02EB83038D
:1016500062699A4219D104F104063046FFF704F892
:10166000E36A40F22002C2F20002526B934282BF50
:1016700040F22002C2F20002536303EB8303064AE6
:1016800002EB83003146FEF7C1FF0DB100F0FAFA1C
:1016900000F00EFB70BD00BF5800002030B50446BE
:1016A00058B3FFF7E5FA40F22005C2F20005EB6AF5
:1016B0001C44D5F8A00000F10400FEF7D5FFD5F8D2
:1016C000A0305C60EB6A9C4208D2D5F8B800D5F82F
:1016D000A01001F10401FEF7A9FF0BE040F2200386
:1016E000C2F20003D3F8B400D3F8A01001F1040152
:1016F000FEF79CFFFFF700FE08B900F0C3FA30BD0B
:1017000030B505460C46FFF7B3FA2B681C4440F28F
:101710002002C2F20002D26A93420AD9A3423FD900
:1017200040F22003C2F20003DB6A2C609C422FD9F6
:1017300009E0A34232D840F22003C2F20003DB6A80
:101740009C422BD82CE040F22005C2F20005D5F8CF
:10175000A00000F10400FEF787FFD5F8A0305C6020
:10176000EB6A9C4208D2D5F8B800D5F8A01001F178
:101770000401FEF75BFF0BE040F22003C2F200031E
:10178000D3F8B400D3F8A01001F10401FEF74EFF26
:10179000FFF7B2FD30B900F075FA03E02C60D2E734
:1017A0002C60F5E730BD00BF70B5054600F072FA59
:1017B00040F22003C2F20003D3F8A0309D4208BFDC
:1017C000002500D035B940F22003C2F20003D3F85F
:1017D000A04000E02C4604F104063046FEF744FF2A
:1017E000A36A1BB104F11800FEF73EFF40F220048B
:1017F000C2F2000404F1FC003146FEF707FFD4F802
:10180000143103F10103C4F81431D4F8183103F191
:101810000103C4F8183100F04BFAD4F8103113B1B9
:101820000DB900F02FFA70BD00B54FF0A00080F3A5
:10183000118840F22003C2F200034FF00002C3F807
:10184000102100F01DFA00BD70B5184C4FF00006D5
:10185000D4F81431002BFBD0FFF70AFAD4F8FC506F
:10186000FFF74AFD002DF3D000F014FAD4F8FC3055
:101870000BB9354602E0D4F80831DD6805F1040003
:10188000FEF7F2FE236B03F1FF332363D4F8143128
:1018900003F1FF33C4F8143100F00AFA286B00F0AA
:1018A00037F9284600F034F9D2E700BF20000020C5
:1018B0002DE9F04F82460F469846DDF824B0DDF85A
:1018C00028900B9D94B24FF0480000F041F9064675
:1018D00010B94FF0FF30E5E0002D40F0E5804FEA11
:1018E000840000F035F90546306328B9304600F031
:1018F0000FF94FF0FF30D5E04FEA840228464FF051
:10190000A50101F05DF904F1FF35336B03EB8505AB
:1019100025F0070506F1340039464FF00C0201F0BE
:1019200093F94FF0000386F83F30BBF1040F34BF4A
:101930005C460424F462746406F104073846FEF73A
:1019400061FE06F11800FEF75DFE3661C4F1050484
:10195000B461766228465146424600F069F930602B
:10196000B9F1000F01D0C9F8006000F093F940F21E
:101970002003C2F200031A6B02F101021A63D3F8CA
:10198000A030ABBB40F22003C2F20003C3F8A0605A
:101990001B6B012B42D140F22005C2F2000505F17C
:1019A000380405F19C052046FEF720FE04F11404DE
:1019B000AC42F8D140F22004C2F2000404F58E7566
:1019C0002846FEF713FE04F598784046FEF70EFE13
:1019D00004F11400FEF70AFE04F1FC00FEF706FE17
:1019E0002046FEF703FEC4F8B450C4F8B88015E0F2
:1019F00040F22003C2F20003D3F8103173B940F271
:101A00002003C2F20003D3F8A030DB6A9B4522BF5B
:101A100040F22003C2F20003C3F8A060F26A40F271
:101A20002003C2F20003D3F8F8309A4282BF40F29A
:101A30002003C2F20003C3F8F82040F22003C2F2F0
:101A40000003D3F818213264D3F8182102F10102FF
:101A5000C3F81821F26A5B6B9A4282BF40F22003FE
:101A6000C2F200035A6340F22004C2F2000404F1FF
:101A70003802F36A03EB830302EB83003946FEF777
:101A8000C5FD00F015F9D4F810314BB1D4F8A030F1
:101A9000DB6A9B4504D900F0F5F84FF0010001E046
:101AA0004FF00100BDE8F08F056325E700B584B075
:101AB00041F64900C0F2000044F2E001C0F200012A
:101AC0004FF0000300930193029303934FF05002F1
:101AD000FFF7EEFE012810D14FF0A00080F311882F
:101AE00040F22003C2F200034FF00102C3F81021BC
:101AF0004FF00002DA6200F007F904B000BD00BF49
:101B000040F21403C2F2000318687047704700BF28
:101B100010B5D8B1A0F11004FFF7AAF8D4F804C0AA
:101B200040F26413C2F200031A6818461346516863
:101B30008C45F9D82260046040F21403C2F200031D
:101B4000196862680A441A60FFF7D6FB10BD00BF2F
:101B500070B50446FFF78CF840F26413C2F200033C
:101B60009B68ABB940F26413C2F2000303F10C02AC
:101B70001A604FF0000CC3F804C02C4945F6C05061
:101B80004860C1F800C0506011604FF001029A60D7
:101B9000002C44D004F1100414F0070F1CBF24F0F3
:101BA0000704083404F1FF3245F6BE539A4236D892
:101BB00040F26411C2F200010B685A68944204D9E1
:101BC0001A6812B119461346F7E7184A934226D00D
:101BD0000E681A680A605A68C4EB0202202A12D9F9
:101BE00003EB04056A605C60D5F804E040F264121F
:101BF000C2F20002116894460A4648688645F9D840
:101C00002960CCF8005006F1100440F21402C2F230
:101C1000000211685B68C3EB0103136001E04FF041
:101C20000004FFF769FB204670BD00BF305F002055
:101C3000A0F104004FF0807340F80439034643F8E4
:101C400004194FF00001196040F8182CA0F1380079
:101C5000704700BF064B19680868B0E8F00F80F3C2
:101C600009884FF0000080F311884EF00D0E704788
:101C7000C000002041480068006880F3088800DF49
:101C8000704700BF4EF60453CEF200034FF080526F
:101C90001A6070474FF0A00080F3118840F21803DB
:101CA000C2F200031A6802F101021A60704700BF15
:101CB00040F21803C2F200031A6802F1FF321A6000
:101CC0001AB94FF0000080F311887047EFF30980D4
:101CD0000C4B1A6820E9F00F10602DE908404FF016
:101CE000A00080F31188FEF7D9FF4FF0000080F3C9
:101CF0001188BDE8084019680868B0E8F00F80F363
:101D000009887047C000002010B54EF62053CEF26F
:101D100000031A6842F460021A601A6842F06042D6
:101D20001A604EF21403CEF200034CF24F321A60E6
:101D30004EF21003CEF200034FF007021A6040F299
:101D40001803C2F200034FF000041C60FFF792FF7B
:101D5000204610BD00B54EF60453CEF200034FF0FE
:101D600080521A604FF0A00080F31188FFF718F935
:101D70004FF0000080F3118800BD000008ED00E086
:101D8000002808BF70474FF09D0200F013BB00BF52
:101D9000004204BF014670474FF4806242F01D02CA
:101DA000B0FA80F18840521AC30A400503EB025191
:101DB000704700BF4B000ED25A0DA2F54072FF3A99
:101DC00009D4D2F11F0208DBC90241EA505040F0A9
:101DD0000040D0407047002070476FF0000070470F
:101DE000C0F3C751094208BF00F0004042004FEA6B
:101DF00040704FEA121118BF01F1605128BF81F005
:101E000000414FF08073D34238BF704701F16051F9
:101E100018BF41F4002170474FF4001313EB410F3A
:101E200024D24FEA4102B2F1E04324BFB3F5001CD3
:101E3000DCF1FE5C0DD901F000414FEAC00241EA3D
:101E40005070B2F1004F40EB830008BF20F001005A
:101E5000704711F0804F04BF01F00040704701F05F
:101E6000004040F0FE4040F40000704701D10042C5
:101E7000F5D049004FEAC10141EA10704FEA300045
:101E800040F48000704700BF81F0004183F00043C0
:101E900083F00043F0B491EA030F00F18880841AC4
:101EA00071EB030603D212197341001BB1419A4E24
:101EB00016EA410F08BF5FE0B6EB410F98BF66E03E
:101EC0004FEA1154A4EB1357B14341F4801116EAC1
:101ED000430F07BF00230022B34343F48013D7F11D
:101EE000200631D303FA06F5401941F1000122FA28
:101EF00007F5401923FA07F541EB050102FA06F24E
:101F000011F4001F16D121F4801101EB0451F0BC33
:101F1000B2F1004F08BF10EA500F02D3013041F177
:101F200000017D4BB3EB410F88BF7047090D0905D8
:101F30000020704749085FEA30005FEA320228BF9C
:101F400042F001020134DEE7203F402F19D223FA8C
:101F500007F5401941F10001C7F12006124218BFF0
:101F6000012203FA06F52A43CAE711EA560F04BF15
:101F700000200021F0BC704701F000410020F0BCBF
:101F8000704721F4801101EB0451F0BC704700420E
:101F900018BF41F00101B6EB410F04BFF0BC704720
:101FA0004FF0FE4141F478010020F0BC704783F00F
:101FB0000043841A00BF71EB030705D287F0004786
:101FC000001BB94112197B41534E16EA430FCCD086
:101FD000B6EB410F40F292800C0DA4EB1357C902EF
:101FE00041EA5051C00241F00041DB0243EA525342
:101FF000D20243F00043D7F1200660D302FA06FC78
:10200000FA4003FA06F52A43FB401CEA0C0F18BFFE
:1020100042F00102801A9941E30A6405640D11F04F
:10202000404F2ED427D1002902BF01460020203C7A
:10203000002961D0B1F5803F3FBF103C090441EA5F
:1020400010410004B1F1807F3FBF083C090241EA22
:1020500010610002B1F1805F3FBF043C090141EA19
:102060001071000111F0404F01BF023C890041EAAC
:102070009071800009425FBF013C490041EAD07184
:102080004000002C17DD420521F00041C00A40EA63
:102090004150C90A01EB045141EAC371B2F1004F4A
:1020A00050F1000041F10001B2F1004F08BF20F0F3
:1020B0000100F0BC70470020D907F0BC7047A7F1C1
:1020C0002007202F0CD2C7F1200603FA06F5FB40AB
:1020D0002A4318BF43F00103C01A61F100019BE7D6
:1020E00021F00041C00A40EA4150C90A01EB045105
:1020F000F0BC704700200021F0BC7047004218BFC0
:1021000041F00101B6EB410F7FF44AAFB6EB430F4C
:102110003FF446AFF0BC70470000E0FFF0B5584F09
:1021200081EA030517EA010E1EBF9EEA070F17EAB0
:10213000030494EA070F65D04EEAD57EA64421EA4F
:10214000470141F4801123EA470343F48013A1FBC4
:102150000247A0FB036536197D41A1FB034747F108
:102160000003A0FB0217F619654153F10003094271
:1021700018BF46F001064FF01407B3F5007F47F192
:10218000000734BF3F4A404ABEEB020E31D4C7F1CC
:10219000200403FA04F105FA04F025FA07F21143CA
:1021A00026FA07F2104316FA04F421F480114FEADC
:1021B0005E0741EA47010AD0B4F1004F50F1000038
:1021C00041F10001B4F1004F08BF20F001002C4F95
:1021D0001EEA070F10D041EACE71BE453CBFBDE8F4
:1021E000F04070472649002041EACE71BDE8F0403A
:1021F00070471EEB020EF5D44FEACE710020BDE809
:10220000F0407047394204BF01F000410020004215
:1022100018BF41F001013B4204BF03F0004300221C
:10222000124218BF43F0010307EA0304BC4218BF7F
:102230009EEA070F05D005F000410020BDE8F04000
:10224000704721F0004123F00043B9420FD8BB4250
:102250000DD8002918BF002B09D005F0004141F02E
:10226000FE4141F470010020BDE8F04070474FF09E
:10227000FE4141F478010020BDE8F04070470000C5
:102280000000F07F0000F03F0000E03F2DE9F0414A
:102290000D469846194640F200030446174610467C
:1022A000C3F6F073002200F0DFF990B12046294612
:1022B0000022002300F0D8F9064670B9002200235E
:1022C0003846414600F0D0F90028C4BF34462546C0
:1022D00045DD20462946BDE8F0814146384600F0FC
:1022E00091F8064600F076F83A46434600F0BCF90D
:1022F000F0B9002E46DB02BF40F200053446C3F6BB
:10230000F075E6D040F200074FF00008C3F6F07712
:1023100016F0010F07D04046394622462B46FFF7FC
:10232000FDFE80460F46761023D144463D46D0E759
:10233000002200232046294600F096F900280EDBF3
:102340002046294600F0C2F900F0CEFA3A4643464C
:10235000FFF7E4FE00F0BEF904460D46B9E701F0D0
:10236000E9FC012303600E4B5D681C6805F1004524
:10237000AFE72046294622462B46FFF7CFFE04460C
:102380000D46C5E740F2000122462B460020C3F669
:10239000F07100F05FF8764204460D46B2E700BFE8
:1023A000EC4000009D22002808BF704744BF404217
:1023B00042F48072B0FA80F18840521A41064FEA26
:1023C000102008BF10F0010F00EBC25088BF013091
:1023D000704700BF004204BF0146704710F0004242
:1023E0004FEA125242F4806242F01D0200D5404290
:1023F000B0FA80F18840521AC30A400503EB02513B
:10240000704700BF4B005A0DA2F54072FF3A0FD43F
:10241000D2F11F020EDD11EA410F4FEAC12141EA5C
:10242000505040F0004020FA02F028BF4042704770
:1024300000207047004218BF43F0010313F5001F4E
:1024400088BF21F0004111F0004058BF6FF00040FC
:10245000704700BFF0B581EA030E0EF0004E814FC9
:1024600017EA41051EBF95EA070F17EA430494EAED
:10247000070F00F0C5806D0DA5EB545707F5806779
:102480004FF0004646EAC12444EA5054C00246EAEE
:10249000C32343EA5253D202801A9C4104D200184B
:1024A000644180185C41013F5B084FEA320200251D
:1024B000002140F001004FF0070604E0801A9C4123
:1024C00036D340416441801A9C4136D34041644137
:1024D000801A9C4136D340416441801A9C4136D3D6
:1024E00040416441801A9C4136D340416441013EE1
:1024F00017D0801A9C4136D340416441801A9C41D8
:1025000036D340416441801A9C4136D340416441F6
:10251000090201EB15612D02454020F0FF00454006
:10252000CCE7801A9C4156D335E080185C41C8D274
:102530000018644180185C41C8D2001864418018BA
:102540005C41C8D20018644180185C41C8D20018B0
:10255000644180185C41C8D200186441013E17D024
:1025600080185C41C8D20018644180185C41C8D210
:102570000018644180185C41C8D200186441090207
:1025800001EB15612D02454020F0FF004540CCE7EE
:1025900080185C411FD3420918BF44F0010449016F
:1025A00001EBD56100F01F0000EB451021F4801114
:1025B00041EA0E01013041F10001244208BF20F040
:1025C0000100B7F5006F3EDA013F49DD01EB07512D
:1025D000BDE8F0407047490101EBD56100F01F00F4
:1025E00000EB451021F4801141EA0E01B7F5006FB0
:1025F00029DA013F34DD01EB0751BDE8F0407047B7
:10260000004218BF41F00101124218BF43F001031C
:10261000B7EB410F2CBFB7EB430F1CE0B7EB410FFB
:1026200004BFB7EB430F16E017EA410F04BF17EAE8
:10263000430F10E017EA410F12D017EA430F02D000
:10264000B7EB430F0CD04EF0FE4141F47001002077
:10265000BDE8F04070474FF0FE4141F47801F6E7E5
:102660007146F4E70000E0FF4FF4801C1CEB410FC3
:1026700098BF1CEB430F88BF18E050EA410C08BF1D
:1026800052EA430C20D0904204BF99421CE010F162
:10269000000F91EA030F58BF994208BF90422CBF28
:1026A000D8176FEAE37040F001007047094218BF85
:1026B00040F001001B4218BF42F001021CEB400F2A
:1026C0009CBF1CEB420FE2E70020704721F0004165
:1026D000704700BF2DE9F0415AA30CCB04460D46CC
:1026E000FFF7C2FF002800F399802046294657A330
:1026F0000CCBFFF7B9FF002803DA00200021BDE86A
:10270000F08120462946FFF7E1FF52A30CCBFFF7EB
:10271000ABFF0028C0F28A80002200232046294611
:10272000FFF7A2FF002880F2878040F20007002612
:10273000CBF6E07749A30CCB20462946FFF7EEFC09
:1027400002460B4630463946FFF7A4FBFFF75AFE18
:102750000646FFF73FFE43A30CCB07468846FFF72C
:10276000DDFC22462B46FFF795FB40A30CCB04462D
:102770000D4638464146FFF7D1FC02460B4620463F
:102780002946FFF787FB074688463A464346FFF748
:10279000C5FC38A30CCB04460D46FFF7BFFC37A39E
:1027A0000CCBFFF777FB22462B46FFF7B7FC40F236
:1027B00000030022C3F6D073FFF76CFB3A46434692
:1027C000FFF7ACFC2FA30CCB0746884620462946D2
:1027D000FFF7A4FC2DA30CCBFFF75CFB22462B4696
:1027E000FFF79CFC40F200030022C3F6E073FFF702
:1027F00051FB3A464346FFF74BFB02460B46384631
:102800004146FFF727FE40F200030022C3F6E073C3
:10281000FFF740FB721C00F03FF870E701F08AFA06
:10282000032303601B4B93E8030068E740F20001B9
:102830000020C3F6F07162E740F200070026C3F6FD
:10284000E07777E7EF39FAFE422E8640D2BC7ADD98
:102850002B2386C02342920CA19CC73B3CF92F9EA0
:102860002C15F73F000000000030E6BFA80C615CAB
:1028700010D02B3F1CDC586FA452F13EE0F6B36F32
:10288000E4707C3F0938DE6F993F403FB35142719D
:102890008E71AC3FEC40000070B50023164600225C
:1028A00005460C46FFF7E0FE80B1C4F30A539E19BB
:1028B00040F2FE739E420CDC002E07DD24F0FE4346
:1028C00023F47003284643EA065170BD002000211E
:1028D000FBE701F02FFA03230360024B93E80300A8
:1028E000F3E700BFEC4000002DE9F04F81B0044653
:1028F0000D4600F0DBF870B920462946002200237F
:10290000FFF7B2FE78B10022002320462946FFF7E8
:10291000ABFE00280DDA614B1A685B681046194659
:1029200001B0BDE8F08F5E4B1A685B6803F10043AD
:10293000F4E7204629466A4600F006F94FA30CCB7F
:1029400004460D46FFF790FE002875DD40F20003B7
:10295000C3F6F073204629460022FFF799FA4FF09C
:10296000FF3206460F4620462946FFF795FF40F204
:1029700000030022C3F6E073FFF78CFA02460B4611
:1029800030463946FFF766FD04460D4622462B4683
:1029900020462946FFF7C2FB06460F463A46314617
:1029A0000223404800F0B4F83A46804689460323A3
:1029B00031463D4800F084F832A30CCB82468B466A
:1029C00040464946FFF764FA52465B46FFF742FD30
:1029D00032463B46FFF7A2FB02460B4620462946FD
:1029E000FFF79CFB804600988946FFF7F3FC27A37E
:1029F0000CCB06460F46FFF791FB22462B4682463C
:102A00008B4640464946FFF745FA02460B4650467C
:102A10005946FFF73FFA1FA30CCB04460D4630463C
:102A20003946FFF77BFB02460B4620462946FFF757
:102A300031FA02460B4671E7009B2046013B0093AA
:102A400040F20003C3F6E07329460022FFF720FAA4
:102A50004FF0FF3204460D46FFF71EFF40F2000321
:102A60000022C3F6E073FFF715FA02460B46204634
:102A70002946FFF7EFFC04460D4687E7CD3B7F660E
:102A80009EA0E63F9AB5B312FF075040A80C615CC8
:102A900010D02BBF000000000030E63F1C410000BA
:102AA000EC400000F440000004410000012841EB2C
:102AB000010111F5001F8CBF01200020704700BFED
:102AC000012B2DE9F0450E4600EBC30A1746D8BF8F
:102AD000084698461C46D8BF114613DD5546304679
:102AE000114635E90C00FFF7D5F9013C32463B466B
:102AF000FFF714FB012CF4D1A8F102086FEA0808D3
:102B00000AEBC80A1AE90C00FFF7C4F9BDE8F08522
:102B1000F0B500EBC3051C4608460E4617461146A5
:102B200015E90C00FFF7FAFA012C0CDDA5F11003F2
:102B30000CCBFFF7AFF9013C32463B46FFF7EEFA0C
:102B4000083D012CF2D1F0BD70B5002316460022DD
:102B500005460C46FFF788FD88B12346C4F30A54A6
:102B6000A4F57E74063C346023F0FE4424F4700423
:102B700044F07E5444F4C0042846214670BD3060C1
:102B8000FAE700BF844640EA010313F0030F0DD1BA
:102B9000242A0BD32DE9F00FB1E8F80FA0E8F80FC5
:102BA000A2F12402242AF7D2BDE8F00F002A05D0B2
:102BB00011F8013B00F8013B013AF9D1604670473A
:102BC0008446002A2AD010F0030F04D000F8011B1D
:102BD000013A23D0F7E7282A1CD3A2F128022DE9D5
:102BE000F00F01F0FF0141EA012141EA014141EA10
:102BF00001610B460C460D460E460F468846894637
:102C00008A468B46A0E8FA0F283AFBD2BDE8F00FBF
:102C1000283203D000F8011B013AFBD1604670470F
:102C200010B403780BB9024604E0024612F8013FE3
:102C3000002BFBD14FF00003CC5CD45403F1010313
:102C4000002CF9D110BC704710B4D2B10B78844677
:102C50000CF8013BBBB100F1020312F1FF3210D0BE
:102C600011F8014F03F8014C9C4603F10103002CBD
:102C7000F3D108E00CF8031003F1010312F1FF3265
:102C8000F8D110BC704712F1FF321CBF0023194667
:102C9000F0D1F6E70EB400B585B006AA52F8041BD1
:102CA000049202904FF0000303936FF000430193EE
:102CB000684600F03DF805B05DF804EB03B07047DE
:102CC00010B50446C8B2A16849B12368626803F12F
:102CD000010C944508BF0020934238BFC854E368F4
:102CE0002BB121686268914201D22146984723683E
:102CF00003F10103236010BD70B5154611F1FF34D7
:102D000007D4C6B228463146FFF7DAFF14F1FF3484
:102D1000F8D570BD00B510F0100F07D100F40070A9
:102D2000002814BF30202020FFF7E6FF00BD00BFC1
:102D30002DE9F04F92B006460C460A924FF0000380
:102D4000036044F2C813C0F20003059300F0D0BF43
:102D500004F10105252908BF002705D03046FFF7FB
:102D6000AFFF2C4600F0C4BF15F8010BA0F1200303
:102D7000102B1CD8DFE803F0091B1B0C1B1B1B0FBF
:102D80001B1B1B121B151B1B180047F04007EBE712
:102D900047F08007E8E747F40047E5E747F02007FA
:102DA000E2E747F01007DFE747F40077DCE72A287F
:102DB00008D0A0F13003DBB2092B88BF4FF0000A26
:102DC00010D91EE00A9B03F104000A90D3F800A07A
:102DD000BAF1000FBCBFCAF1000A47F0100715F89E
:102DE000010B0EE04FF0000A0AEB8A0A00EB4A0AD8
:102DF000AAF1300A15F8010BA0F13003DBB2092B60
:102E0000F2D92AEAEA7ACDF810A02E281CBF2C4667
:102E10004FF0000A2FD12C4614F8010B2A2808D0B5
:102E2000A0F13003DBB2092B88BF4FF0000A09D9AB
:102E30001FE00A9B03F104020A92D3F800A014F8E1
:102E4000010B13E005F102054FF0000A0AEB8A0AB4
:102E500000EB4A0AAAF1300A15F8010C2C4605F1DC
:102E60000105A0F13003DBB2092BEFD9BAF1000F55
:102E700001DB47F480776C280AD114F8010B6C2829
:102E800006BF47F0020714F8010B47F001070BE0FB
:102E9000682809D114F8010B682806BF47F0080715
:102EA00014F8010B47F0040778287ED8DFE810F00B
:102EB00079007D007D007D007D007D007D007D002E
:102EC0007D007D007D007D007D007D007D007D001A
:102ED0007D007D007D007D007D007D007D007D000A
:102EE0007D007D007D007D007D007D007D007D00FA
:102EF0007D007D007D007D007D008F007D007D00D8
:102F00007D007D007D007D007D007D007D007D00D9
:102F10007D007D007D007D007D007D007D007D00C9
:102F20007D007D007D007D007D007D007D007D00B9
:102F30007D007D007D007D007D00DA01DF01E40180
:102F40007D007D007D007D007D007D007D007D0099
:102F50007D007D007D007D007D007D007D007D0089
:102F60001F017D007D007D007D007D007D007D00D6
:102F70007D007D007D0096004B01DC01E101E60152
:102F80007D004B017D007D007D007D00B30034019C
:102F900008017D007D00D7007D0041017D007D009E
:102FA00021014FF0FF3000F0B0BE45F68C73C2F245
:102FB00000031D68002D00F09B86CDF800A00AAB31
:102FC000019331463A46049BA84700F091BE304633
:102FD0004FF02501FFF774FE00F08ABE0A9B03F153
:102FE00004020A921D78049B03F1FF3B38465946C0
:102FF0003246FFF78FFE30462946FFF761FE17F095
:10300000100F00F075864FF0200059463246FFF74A
:1030100073FE00F06DBE17F0080F08D00A9B03F195
:1030200004020A921B6832681A7000F061BE17F041
:10303000020F0BD00A9B03F104020A921B6832684C
:103040001A604FF000025A6000F052BE0A9B03F172
:1030500004020A921B6832681A6000F049BE0A9B9B
:1030600003F104020A921B680293DDF808904846B7
:1030700000F036FF8046C7F300238245ACBF002333
:1030800003F00103002B18BFD0460498C8EB000BD7
:10309000384659463246FFF73DFEB8F1000FAED034
:1030A0004FF00005C24619F805103046FFF708FE3C
:1030B00005F10105A845F6D1D144CDF808909EE769
:1030C0000A9B03F104020A921B6817F0800F0CBFE1
:1030D0004FF0000B4FF0230B19464FEAE1720291BB
:1030E000039247F480774FF0080A00F0F6BC47F4EB
:1030F000005717F0800F08BF4FF0000B06D043F2C7
:10310000580343F2780B782818BF9B4617F4807F4A
:1031100018BF27F400771AE017F0800F0CBF4FF0AC
:10312000000B4FF0300B17F4807F18BF27F40077A7
:103130000DE017F4807F0EBF4FF0000B27F40077EF
:103140004FF0000B03E047F480474FF0000B17F0FF
:1031500002020AD00A9B03F108010A9193E80003D6
:10316000CDF80880CDF80C900EE0DDF828C00CF109
:1031700004030A93DCF800104FF0000388469946D8
:10318000CDF80880CDF80C9017F4804F3DD017F0A3
:10319000040F09D0BDF808100FFA81F842464FEA33
:1031A000E2730292039313E017F0080F0AD09DF820
:1031B000081001F0FF084FF00009CDF80880CDF8A5
:1031C0000C9005E0029B1A464FEAE27302920393C9
:1031D00002AB0CCB0399002903DB17F0200F0ED0B4
:1031E0000AE0D2F1000863EB4309CDF80880CDF87E
:1031F0000C904FF02D0B2CE04FF02B0B29E017F02B
:10320000400F18BF4FF0200B23E017F0040F0BD036
:10321000BDF808108AB24FF0000390469946CDF8E9
:103220000880CDF80C9014E017F0080F08D09DF836
:10323000083003F0FF024FF000030292039308E00E
:103240003AB9DDF808C04FF0000162460B46029221
:10325000039317F4807F18BF27F4007740F03D8474
:1032600000F03EBC47F4005747F4806708E047F49D
:10327000005747F4006703E047F4005747F44067FE
:103280000A9B03F108020A921D68D3F804802846BD
:1032900041460290039117F4807F08BF4FF0060A61
:1032A0002846414600F08CFD60B117F4005F07BF6F
:1032B00044F2BC13C0F2000344F2C013C0F2000396
:1032C0000293D2E628464146FFF7F0FB30B117F4EF
:1032D000005F0CBFD84B059B0293C6E628464146CB
:1032E0004FF000024FF00003FFF7BEF958B907F4A2
:1032F0004863B3F5406F06D144F2CC110A46C0F2E0
:1033000000020292B1E6284641464FF000024FF01B
:103310000003FFF7A9F9002809DA47F0600708F170
:103320000043A8469946CDF80880CDF80C9002A934
:1033300003C98046894611AAFFF706FC119A02EBE1
:10334000420246F26763C6F2666383FB02134FEAEA
:10335000E272C2EBA305119517F4806F00F02D8186
:1033600017F4006F0AD040464946B1A30CCBFFF7D3
:103370007BF9002802DBAA4500F31F81C5F100009C
:1033800000F0E4FD02460B4640464946FEF7C6FE05
:103390008046894602460B46029203934FF0000294
:1033A0004FF00003FFF760F9002857D04046494628
:1033B0004FF0000240F20003C4F22403FFF754F977
:1033C00000281DDB119D05F10105404649464FF0DF
:1033D000000240F20003C4F22403FFF73BF88046EA
:1033E00089464FF0000240F20003C4F22403FFF7C5
:1033F0003BF90028E7DA40464946029003911195CF
:1034000002AA06CA88469146084611464FF00002B5
:1034100040F20003C3F6F073FFF726F900281DDA27
:10342000119D05F1FF35404649464FF0000240F23C
:103430000003C4F22403FEF771FE804689464FF074
:10344000000240F20003C3F6F073FFF70DF9002805
:10345000E7DB42464B46029203931195BAF1000F07
:1034600001D00AF1FF3A02A903C980468946CAF190
:10347000000000F06BFD4FF0000240F20003C3F6C5
:10348000E073FEF74BFE02460B4640464946FEF708
:1034900001FD8046894601464A4602910392404614
:1034A00049464FF0000240F20003C4F22403FFF744
:1034B000DBF8002811DB119B03F101031193404657
:1034C00049464FF0000240F20003C4F22403FEF725
:1034D000C1FF02460B4602920393BAF1000F3BD0A4
:1034E00007F40863B3F5006F40F01284BAF1100FCF
:1034F000A8BF4FF0100A02A903C98046894650466A
:1035000000F024FD02460B4640464946FEF706FE03
:1035100000F030FC80460D4658EA05010CD119E058
:103520000AF1FF3A404629464FF00A024FF00003E5
:1035300000F0A6FC80460D46BAF1000F0CD04046C4
:1035400029464FF00A024FF0000300F093FC0143BC
:10355000E6D0DDE34FF0000A27F400620692049BF8
:10356000A3F10509CAEB090917F0800F01D009F191
:10357000FF39069810F0600F18BF09F1FF39119854
:1035800000F0DEFC6328C8BF09F1FF3902AA06CAB1
:103590000846114600F0EEFB0746884600F0E0FBC7
:1035A00002460B4602A903C9FEF772FC02460B460F
:1035B000029203934FF00105FAE0BAF1000F56D0E2
:1035C00007F49063B3F5806F51D16FEA05039A4415
:1035D000002D0BDB404649464FF0000240F200034D
:1035E000C3F6F073FFF740F8002801DA0AF1010A88
:1035F0000E2DC8BF4FF0000A39DCBAF1100FA8BF7A
:103600004FF0100A504600F0A1FC02460B4640461F
:103610004946FEF783FD4FF0000240F20003C3F677
:10362000E073FEF737FC00F0A5FB05468B4611E082
:103630002D431CEBE2361A3FC44100000AF1FF3A69
:10364000284659464FF00A024FF0000300F018FCDC
:1036500005468B46BAF1000F09D0284659464FF06F
:103660000A024FF0000300F005FC0143E6D027F406
:10367000806706971198A0F11000CAF100039842E4
:1036800012DB00F063FC4FF0FF32FFF705F9024652
:103690000B4640464946FEF7FDFB80468946CDF87D
:1036A0000880CDF80C9010E0184600F04FFC4FF069
:1036B000FF32FFF7F1F802460B4640464946FEF757
:1036C000E9FB02460B4602920393119B002B35DB6C
:1036D000102B1BDDA3F11003119302A903C90746A8
:1036E0008846C3F1000000F031FC02460B46384624
:1036F0004146FEF713FD00F03DFB074688464FF0BC
:1037000000014FF00002029103921EE002AB0CCBCD
:103710001046194600F02EFB0746884600F020FBB5
:1037200002460B4602A903C9FEF7B2FB02460B464E
:10373000029203934FF00003119306E04FF0000351
:1037400011934FF000074FF000084FF0000343457E
:1037500004D806D14FF00A01B94202D94FF0010551
:103760000EE0DFF8CC354FF0010505F101051969D0
:103770005A6903F10803424502D8F6D1B942F4D997
:10378000DDF84490049BC9EB0309CAEB0909C5EBBA
:103790000909BAF1000F03D1069810F0800F01D08B
:1037A00009F1FF39069911F0600F18BF09F1FF39CF
:1037B00029EAE979CDF81090069A12F4047F18D11D
:1037C0004B46B3B14FF020090797CDF820802F4624
:1037D00025461C4604F1FF3430464946FFF770FA8F
:1037E000002CF7D104942C463D460DF11C0898E8B6
:1037F0008001069810F0200F08D010F0400F14BF81
:103800002D212B213046FFF75BFA08E0069911F0D5
:10381000400F04D030464FF02001FFF751FA069ACE
:1038200012F0100F18D1049BB3B14FF03009079775
:10383000CDF820802F4625461C4604F1FF34304643
:103840004946FFF73DFA002CF7D104942C463D463B
:103850000DF11C0898E8800144F22419C0F2000917
:1038600009EBC509CDF81CA0099405F1FF3519E94C
:103870001800444522D801D1BB421FD8D3F1000A19
:1038800064EB440BFF1A68EB04084FF03001AE46BE
:103890008C46184621460CF1010C5FFA8CFC17EBA4
:1038A0000A0248EB0B03141843EB0105A94208D8A0
:1038B00001D1A04208D817469846ECE74FF03001F6
:1038C00004E07546614601E0754661463046FFF703
:1038D000F7F9A9F10809002DC7D1DDF81CA0099C52
:1038E000069A12F400680ED0119B002B0BDD4FF0EE
:1038F000300703F1FF33119330463946FFF7E0F903
:10390000119B002BF5DCBAF1000F05D1069B13F0DB
:10391000800F40F0068287E030464FF02E01FFF71F
:10392000CFF9BAF1000F04DDBAF1100FB4BF55465C
:103930001025C5EB0A0ACDF81CA0B8F1000F13D072
:1039400002A903C9074688461198C0EB050000F09C
:10395000FDFA02460B4638464146FEF7DFFB00F013
:1039600009FA0746884610E002AA06CA0F469046A2
:10397000284600F0EBFA02460B4638464146FEF771
:10398000CDFB00F0F7F90746884644F22419C0F24F
:10399000000909EBC509099405F1FF3519E918007B
:1039A000444522D801D1BB421FD8D3F1000A64EBB1
:1039B000440BFF1A68EB04084FF03001AE468C460A
:1039C000184621460CF1010C5FFA8CFC17EB0A0239
:1039D00048EB0B03141843EB0105A94208D801D1A9
:1039E000A04208D817469846ECE74FF0300104E0B3
:1039F0007546614601E0754661463046FFF760F95D
:103A0000A9F10809002DC7D1099C079961B105F1F9
:103A1000300527460C4604F1FF3430462946FFF7AF
:103A20004FF9002CF7D13C46069A12F4806F42D031
:103A300012F4005F14BF452165213046FFF740F9BD
:103A4000119B002B09DA30464FF02D01FFF738F9B2
:103A5000119BC3F10003119304E030464FF02B019A
:103A6000FFF72EF9119B632B0FDD4FF0640593FBDD
:103A7000F5F303F13001C9B23046FFF721F9119B8C
:103A800093FBF5F205FB123311934FF00A051199E0
:103A900091FBF5F101F13001C9B23046FFF710F9A1
:103AA000119B93FBF5F205FB123303F13001C9B210
:103AB0003046FFF705F9049B002B00F019814FF009
:103AC000200527461C4604F1FF3430462946FFF7FF
:103AD000F7F8002CF7D13C460AE117F4807F01D1BA
:103AE0004FF0010AA0F15800202800F2B180DFE871
:103AF00000F022AFAFAFAFAFAFAFAFAFAFAF1AAF66
:103B0000AFAFAF1AAFAFAFAFAF1122AFAFAFAF1A1A
:103B1000AFAF2200029A039B52EA03091CBF0025A3
:103B20000BA83BD194E0DDF80880DDF80C9058EA52
:103B3000090C4AD18CE0029A039B52EA030E00F072
:103B400087804FF0000507F400510BA851B102F037
:103B50000F0C44F21828C0F2000818F80CC000F846
:103B600005C009E002F00F0C44F22829C0F2000958
:103B700019F80CC000F805C005F101054FEA121252
:103B800042EA03724FEA131352EA030CDED1904665
:103B90009946CDF80880CDF80C905BE002F0070163
:103BA00001F13001415505F101054FEAD20242EA27
:103BB00043724FEAD30352EA030EEFD1904699467F
:103BC000CDF80880CDF80C9044E04FF0000507F4E4
:103BD00000400290CDF818A0CDF81CB0BB46B2460C
:103BE0002746064656B105F00303032B01BF12A971
:103BF0004B192C2203F81C2C08BF013512AB03EB28
:103C00000504404649464FF00A024FF0000300F019
:103C100031F900F1300004F81C0C05F101054046B3
:103C200049464FF00A024FF0000300F029F98046A0
:103C3000894650EA010CD5D15646DDF818A03C461D
:103C40005F46DDF81CB0CDF80880CDF80C9001E09F
:103C50004FF00005C5EB0A0828EAE8780498C8EB9D
:103C6000000AC5EB0A0ABBF1FF0F88BF0AF1FF3A51
:103C7000BBF1000F01D00AF1FF3A17F4007F06D123
:103C8000384651463246FFF745F84FF0000ABBF17F
:103C9000FF0F04D9CBF307213046FFF711F8BBF132
:103CA000000F04D05FFA8BF13046FFF709F8384671
:103CB00051463246FFF72EF84FF03000414632466B
:103CC000FFF71AF815F1FF3809D40BAB1D4415F8AE
:103CD000011D3046FEF7F4FF18F1FF38F7D517F055
:103CE000100F05D04FF0200051463246FFF704F880
:103CF000217800297FF42CA8B3682BB13268716851
:103D00008A423CBF00219954306812B0BDE8F08F60
:103D100027F4006706970499A1F10509CAEB090980
:103D200025E430464FF02E01FEF7CAFF01E600BF42
:103D30002441000045F63870C2F20000704700BF11
:103D4000704700BF704700BF704700BF704700BF9B
:103D5000704700BF704700BF704700BF704700BF8B
:103D600050EA010308BF70475FF4806242F03D02F1
:103D700000F041B84B001BD25A0DA2F54072FF3A39
:103D800016D4D2F13F0216DBC90241EA5051C002FB
:103D900041F00041202A24BF0846002102F01F0202
:103DA000C2F12003D04011FA03F31843D140704709
:103DB0000020002170476FF000010846704700BFE7
:103DC000012841EB010111F5001F0CBF012000206B
:103DD000704700BF50EA010308BF704711F000426E
:103DE0004FEA125242F4806242F03D0203D50023B2
:103DF000404263EB0101002902BF01460020203A46
:103E0000B1F5803F3FBF103A090441EA1041000478
:103E1000B1F1807F3FBF083A090241EA1061000218
:103E2000B1F1805F3FBF043A090141EA107100011E
:103E300011F0404F01BF023A890041EA90718000C1
:103E400009425FBF490041EAD0714000013A830551
:103E50004FEAD02040EA41504FEAD12108BF10F08C
:103E6000010F01EB025198BF7047013041F1000191
:103E7000704700BF00B500F003F81046194600BDBA
:103E80002DE9F0004FF000044FF000054FF001065F
:103E90004FF000078B4208BF824209D892185B415D
:103EA00002D2B6197F41F5D95FEA33034FEA3202F5
:103EB000994208BF904205D3801A61EB0301A4190F
:103EC00045EB07057F085FEA360603D25B084FEA39
:103ED0003202EDE702460B4620462946F0BC704709
:103EE00000F1010110F0030F11D010F8012B002A8E
:103EF00023D010F0030F0AD010F8012B002A1CD099
:103F000010F0030F03D010F8012B002A15D02DE973
:103F100070004FF001324FF0803350F8044BA4EBA7
:103F2000020525EA04051D4000D1F6E7A0F10400D2
:103F300070BC10F8012B002AFBD1A0EB01007047E8
:103F400080EAE073A3EBE0731846704770B504464F
:103F50000028AEBF002644420126002CDEBF00220E
:103F600040F20003C3F6F0731BDD4FF0000240F295
:103F70000003C3F6F07344F2D015C0F2000514F04C
:103F8000010F07D01046194695E80C00FEF7C6F859
:103F900002460B464FEA6404002C02DD05F10805D9
:103FA000EDE74EB14FF0000040F20001C3F6F071B2
:103FB000FEF750FA02460B461046194670BD00BF88
:103FC0000A53797374656D4672657175656E6379B0
:103FD0003A202564487A0A53797374656D46726590
:103FE0007175656E63795F50776D436C6B3A202510
:103FF00064487A0A53797374656D467265717565A4
:104000006E63795F416463436C6B3A202564487A40
:104010000A53797374656D4672657175656E63795F
:104020005F43616E436C6B3A202564487A0A000056
:104030005465737400000000657272434F554C4420
:104040005F4E4F545F414C4C4F434154455F524586
:104050005155495245445F4D454D4F52590A000054
:10406000546573745461736B0A00000040420F0082
:1040700000201C0080841E0000802500999E3600D0
:104080000040380000093D0000803E0000004B0069
:10409000404B4C0000204E00808D5B0000C05D0056
:1040A0000080700000127A0000007D002564203D31
:1040B0003E2025642C2564203D3E202564205B2580
:1040C0002E326625255D0A00257309092563092519
:1040D000750925750925750D0A0000000D0A0000F7
:1040E00049444C4500000000E000000000000000D2
:1040F0000000F07FEDAF16204A62304029BD56B374
:104100001544E9BF77900D9CFE0B88C07E2615FAFA
:10411000838073400FCE674B80D541C00000000004
:104120000000F87F01000000000000000A0000000D
:10413000000000006400000000000000E803000030
:10414000000000001027000000000000A086010011
:104150000000000040420F00000000008096980020
:104160000000000000E1F5050000000000CA9A3BD5
:104170000000000000E40B540200000000E8764854
:10418000170000000010A5D4E800000000A0724E47
:104190001809000000407A10F35A00000080C6A4FD
:1041A0007E8D03000000C16FF286230000008A5D4F
:1041B00078456301000064A7B3B6E00D696E660040
:1041C000494E46006E616E004E414E0030000000C8
:1041D00000000000000024400000000000005940E2
:1041E000000000000088C3400000000084D7974111
:1041F0000080E03779C34143176E05B5B5B89346E3
:10420000F5F93FE9034F384D321D30F94877825AAE
:104210003CBF737FDD4F157530313233343536375F
:1042200038394142434445463031323334353637EC
:084230003839616263646566C0
:10423800001BB700001BB7000024F40000127A002E
:0C424800FF000000C05D0000AAAAAAAAA6
:0400000300000101F7
:00000001FF
