:10000000986000206F01000003010000050100005E
:1000100007010000000000000000000000000000D8
:10002000000000000000000000000000A92D0000FA
:100030000000000000000000B12E0000ED2E0000C6
:100040000F01000011010000130100001501000064
:1000500017010000190100001B0100001D01000034
:100060001F01000021010000230100002501000004
:1000700027010000290100002B0100002D010000D4
:100080002F010000310100003301000035010000A4
:1000900037010000390100003B0100003D01000074
:1000A0003F01000041010000430100004501000044
:1000B00047010000490100004B0100004D01000014
:1000C0004F010000510100005301000055010000E4
:1000D00057010000590100005B0100005D010000B4
:1000E0005F01000061010000630100006501000084
:1000F00067010000690100006B0100006D01000054
:1001000036E0FEE7FEE7FEE7FEE7FEE7FEE7FEE796
:10011000FEE7FEE7FEE7FEE7FEE7FEE7FEE7FEE7B7
:10012000FEE7FEE7FEE7FEE7FEE7FEE7FEE7FEE7A7
:10013000FEE7FEE7FEE7FEE7FEE7FEE7FEE7FEE797
:10014000FEE7FEE7FEE7FEE7FEE7FEE7FEE7FEE787
:10015000FEE7FEE7FEE7FEE7FEE7FEE7FEE7FEE777
:10016000FEE7FEE7FEE7FEE7FEE7FEE7FEE7FEE767
:1001700027498D4627482849284A00F037F828485B
:100180002849294A00F032F828482949294A00F02C
:100190002DF8294829492A4A00F028F829482A49EF
:1001A0002A4A00F023F82A482A492B4A00F01EF870
:1001B0002A482B49002200F024F82A482A49091A23
:1001C00000220260043001601C481D49884205D0AD
:1001D0000268043003B4904703BCF7E7002086466A
:1001E000EC4600200021214A9047FEE7884207D0D4
:1001F000521A05D0037801300B700131013AF9D160
:100200007047884202D002700130FAE77047000060
:10021000986000201C540000000000201C000020FA
:100220007002000070020000E0510000385400002D
:100230009860002098600020E0510000E05100002C
:10024000E0510000E0510000E0510000E0510000EA
:10025000E0510000E05100001C5400001C00002090
:10026000985F0020985F0020186000207102000055
:1002700080B581B001AF00F073F800F0A9FA40F248
:100280000003C2F20003196840F20403C2F2000343
:100290001A6840F20803C2F20003D3F800C040F22B
:1002A0000C03C2F200031B68009345F2E010C0F299
:1002B0000000634603F0ECFD4FF0010000F01AF877
:1002C00001F0A8FCFEE700BF80B582B000AF386047
:1002D00001F0B0FD03467B6045F25020C0F2000003
:1002E00003F0D6FD07F10403184642F2107101F045
:1002F000BFF9F1E780B587B004AF386045F25C2301
:10030000C0F200033A68009207F1040201924FF034
:10031000000202924FF00002039240F2C920C0F2A4
:10032000000019464FF0500240F21C03C2F20003D5
:1003300001F05EF80346BB60BB68B3F1FF3F05D137
:1003400045F26420C0F2000003F0A2FD07F10C07A3
:10035000BD4680BD80B400AFBD4680BC704700BFC5
:1003600080B581B000AF4EF20003C4F20F0342F635
:100370001002C0F280721A674EF20003C4F20F033B
:1003800042F6D122C0F28E721A664EF20003C4F217
:100390000F0342F68232C0F28E121A664EF200034A
:1003A000C4F20F0342F60002C0F280721A674FF0E7
:1003B00000033B6003E03B6803F101033B603A68E4
:1003C00040F2E7339A42F6D94EF20003C4F20F032B
:1003D00040F68232C0F28E121A664EF20003C4F268
:1003E0000F0340F60002C0F280721A674FF000035C
:1003F0003B6003E03B6803F101033B603A6840F275
:10040000E7339A42F6D94EF20003C4F20F0340F6E6
:100410008232C0F2CE121A664EF20003C4F20F030B
:100420001B6D03F04003002BF6D04EF20003C4F224
:100430000F0340F28232C0F2CE121A664EF200036F
:10044000C4F20F034FF0F0621A674FF000033B60F5
:1004500003E03B6803F101033B603A6842F20F732B
:100460009A42F6D900F004F807F10407BD4680BDB2
:1004700090B584B000AF4EF20003C4F20F031B6EC0
:100480003B604EF20003C4F20F031B6F7B604FF022
:100490000003BB607B68002B36DA7B6803F40063E3
:1004A000002B10D03B684FEA931303F00F027B68D8
:1004B0004FEA131303F007031046194600F0DAF869
:1004C0000346BB6004E04CF20023C0F6EB33BB6094
:1004D0003B6803F48003002B0FD07B684FEAD353B3
:1004E00003F03F0303F10103BA68B2FBF3F240F2F9
:1004F0000003C2F200031A603CE040F20003C2F2C3
:100500000003BA681A6035E03B6803F40063002B0F
:1005100010D03B684FEA931303F00F023B684FEA99
:10052000131303F003031046194600F0A3F8034623
:10053000BB6004E04CF20023C0F6EB33BB603B68C9
:1005400003F48003002B0FD03B684FEAD35303F032
:100550000F0303F10103BA68B2FBF3F240F20003A8
:10056000C2F200031A6005E040F20003C2F2000389
:10057000BA681A603B6803F48013002B35D03B68DF
:100580004FEA534303F00703184602F0E9FC034621
:100590000C464FF000004FF080411A46234603F00E
:1005A00067F803460C46184621461A46234602F0D1
:1005B00059FD03460C461846214602F0E3FC03466B
:1005C000FB60FB68402B02D94FF04003FB6040F218
:1005D0000003C2F200031A68FB68B2FBF3F240F2B8
:1005E0000403C2F200031A6009E040F20003C2F201
:1005F00000031A6840F20403C2F200031A607B6829
:10060000002B15DA7B6803F40053002B06D040F270
:100610000803C2F20003BA681A601EE040F2080341
:10062000C2F2000342F20042C0F2F4021A6014E087
:100630003B6803F40053002B06D040F20803C2F2DB
:100640000003BA681A6008E040F20803C2F200032F
:1006500042F20042C0F2F4021A6040F20C03C2F20D
:10066000000341F20022C0F27A021A6007F110077B
:10067000BD4690BD80B483B000AF7860396041F66C
:100680000033C0F2B703BB603B68032B00F29880D5
:1006900001A252F823F000BFA90600009F07000046
:1006A000AB070000B70700007B680F2B00F28780C4
:1006B00001A252F823F000BFF90600000507000070
:1006C0000D07000019070000210700002D0700009A
:1006D00035070000410700004907000051070000EE
:1006E0005D07000069070000750700008107000032
:1006F000890700009507000044F24023C0F20F0371
:10070000BB604BE04FF4E113BB6047E048F280432D
:10071000C0F21E03BB6041E04FF41613BB603DE026
:1007200049F69963C0F23603BB6037E04FF46113BA
:10073000BB6033E040F60013C0F23D03BB602DE028
:100740004FF47A13BB6029E04FF49603BB6025E0B9
:1007500044F64033C0F24C03BB601FE042F200039A
:10076000C0F24E03BB6019E048F68053C0F25B0351
:10077000BB6013E04CF20003C0F25D03BB600DE010
:100780004FF4E103BB6009E041F20023C0F27A03B9
:10079000BB6003E04FF4FA03BB6011E010E041F6E8
:1007A0000033C0F2B703BB600AE04CF2C063C0F292
:1007B0002D03BB6004E047F23053BB6000E000BF94
:1007C000BB68184607F10C07BD4680BC704700BFE8
:1007D000F0B588B003AF48F28043C0F21E03BB609F
:1007E00040F20003C2F200031A68BB684FEA031329
:1007F000B2FBF3F33B6040F20003C2F200031B685C
:10080000BA684FEA0212B3FBF2F102FB01F2C2EB4B
:1008100003037B607B684FEAC302BB68B2FBF3F360
:1008200003F101034FEA53037B6040F20003C2F27D
:1008300000031B684FEA83023B684FEA83117B6821
:100840000B44B2FBF3F3FB60B86802F081FB034694
:10085000184602F0ADFB03460C464FF000004FF087
:10086000404101F5B2011A46234602F0F7FD034666
:100870000C461D462646F86802F06AFB03461846F9
:1008800002F096FB03460C46284631461A4623469C
:1008900002F02CFD03460C46184621464FF000029C
:1008A0004FF0804303F5B20302F0DCFB03460C4635
:1008B0001846214602F098FB03463B61386902F076
:1008C00077FB03460C46FA6800920193029445F2C6
:1008D0008C20C0F20000B9683A687B6803F0D8FA4F
:1008E00007F11407BD46F0BD80B481B000AF386099
:1008F0003B6803F108031A463B685A603B684FF0B7
:10090000FF329A603B6803F108031A463B68DA60DD
:100910003B6803F108031A463B681A613B684FF0D5
:1009200000021A6007F10407BD4680BC704700BF93
:1009300080B481B000AF38603B684FF000021A61AC
:1009400007F10407BD4680BC704700BF80B483B088
:1009500000AF786039607B685B68BB60BB685A68D1
:100960003B685A607B685A683B689A60BB685B6802
:100970003A689A603A68BB685A603A687B685A601D
:100980003B687A681A617B681B6803F101027B6827
:100990001A6007F10C07BD4680BC704780B484B074
:1009A00000AF786039603B681B68FB60FB68B3F19F
:1009B000FF3F03D17B681B69BB600DE07B6803F1DF
:1009C0000803BB6002E0BB685B68BB60BB685B6838
:1009D0001A68FB689A42F6D9BB685A683B685A6045
:1009E0003B685B683A689A603B68BA689A603A68A4
:1009F000BB685A603B687A681A617B681B6803F1C0
:100A000001027B681A6007F11007BD4680BC704781
:100A100080B482B000AF38603B685B683A68926827
:100A20009A603B689B683A6852685A603B681B69E9
:100A30007B607B685A683B689A4203D13B689A683E
:100A40007B685A603B684FF000021A617B681B6844
:100A500003F1FF327B681A6007F10807BD4680BCCE
:100A6000704700BF80B584B000AF786039607B68A4
:100A7000002B55D04FF04C0002F034F80346BB6019
:100A8000BB68002B4CD07B683A6802FB03F303F190
:100A90000103FB60F86802F025F803461A46BB68BC
:100AA0001A60BB681B68002B37D0BB681A687B686C
:100AB000396801FB03F31A44BB685A60BB684FF006
:100AC00000029A63BB681A68BB689A60BB681A68C0
:100AD0007B6803F1FF33396801FB03F31A44BB68F9
:100AE000DA60BB687A68DA63BB683A681A64BB6824
:100AF0004FF0FF325A64BB684FF0FF329A64BB6814
:100B000003F110031846FFF7EFFEBB6803F124035F
:100B10001846FFF7E9FEBB6804E0B86802F0BEF8CB
:100B20004FF00003184607F11007BD4680BD00BF17
:100B300080B581B000AF4FF04C0001F0D3FF034609
:100B40003B603B68002B38D03B684FF000025A6096
:100B50003B684FF000021A603B684FF000029A6059
:100B60003B684FF00002DA603B684FF000029A6386
:100B70003B684FF00102DA633B684FF000021A64F1
:100B80003B684FF0FF325A643B684FF0FF329A6483
:100B90003B6803F110031846FFF7A6FE3B6803F11C
:100BA00024031846FFF7A0FE38684FF000014FF00D
:100BB00000024FF0000300F063F83B68184607F1AD
:100BC0000407BD4680BD00BF90B582B000AF38605D
:100BD0003B685C6801F0C2FE03469C4216D13B684C
:100BE000DB6803F1FF323B68DA603B68DB68002BAF
:100BF00008D138684FF000014FF000024FF00003B9
:100C000000F03EF84FF001037B6002E04FF000037C
:100C10007B607B68184607F10807BD4690BD00BFA2
:100C200090B583B000AF786039607B685C6801F094
:100C300095FE03469C4209D17B68DB6803F1010203
:100C40007B68DA604FF00103BB6012E078684FF018
:100C500000013A684FF0000300F0EEF80346BB6075
:100C6000BB68012B05D17B68DB6803F101027B685F
:100C7000DA60BB68184607F10C07BD4690BD00BF9F
:100C800080B587B000AFF860B9607A603B604FF024
:100C90000003BB6100E000BF02F0D8F8FB689A6B6C
:100CA000FB68DB6B9A4218D2F868B9683A6800F0C2
:100CB0000DFAFB685B6A002B0AD0FB6803F1240382
:100CC000184601F091FB0346012B01D102F0B2F866
:100CD00002F0D2F84FF001035DE07B68002B04D1F5
:100CE00002F0CAF84FF0000355E0BB69002B07D1B2
:100CF00007F11003184601F0E1FB4FF00103BB615F
:100D000002F0BAF800F0D4FF02F0A0F8FB685B6CC8
:100D1000B3F1FF3F03D1FB684FF000025A64FB6858
:100D20009B6CB3F1FF3F03D1FB684FF000029A6464
:100D300002F0A2F807F1100207F104031046194669
:100D400001F0D4FB0346002B1ED1F86800F0C4FA72
:100D50000346002B12D0FB6803F110027B6810469B
:100D6000194601F0D7FAF86800F03EFA00F0B2FF39
:100D70000346002B8FD102F05DF88DE7F86800F094
:100D800033FA00F0A7FF87E7F86800F02DFA00F0CB
:100D9000A1FF4FF00003184607F11C07BD4680BDB8
:100DA00080B586B000AFF860B9607A603B604FF004
:100DB00000037B614FF0A00080F31188FB689A6B01
:100DC000FB68DB6B9A4229D2F868B9683A6800F090
:100DD0007DF9FB689B6CB3F1FF3F11D1FB685B6A47
:100DE000002B14D0FB6803F12403184601F0FCFA31
:100DF0000346002B0DD07B684FF001021A6009E01A
:100E0000FB689B6C03F10102FB689A6402E000BF7F
:100E100000E000BF4FF001033B6102E04FF0000330
:100E20003B614FF0000080F311883B69184607F1E1
:100E30001807BD4680BD00BF80B588B000AFF86020
:100E4000B9607A603B604FF00003BB6100E000BF17
:100E500001F0FCFFFB689B6B002B44D0FB68DB6858
:100E6000FB61F868B96800F097F93B68002B1FD167
:100E7000FB689B6B03F1FF32FB689A63FB681B689E
:100E8000002B05D101F06AFD03461A46FB685A6043
:100E9000FB681B69002B1ED0FB6803F1100318468A
:100EA00001F0A2FA0346012B17D101F0C3FF15E0B0
:100EB000FB68FA69DA60FB685B6A002B0ED0FB689E
:100EC00003F12403184601F08FFA0346002B05D0E6
:100ED00001F0B0FF02E000BF00E000BF01F0CCFF76
:100EE0004FF001036BE07B68002B04D101F0C4FFDD
:100EF0004FF0000363E0BB69002B07D107F110033B
:100F0000184601F0DBFA4FF00103BB6101F0B4FFBA
:100F100000F0CEFE01F09AFFFB685B6CB3F1FF3F7F
:100F200003D1FB684FF000025A64FB689B6CB3F17D
:100F3000FF3F03D1FB684FF000029A6401F09CFF71
:100F400007F1100207F104031046194601F0CEFA2A
:100F50000346002B2CD1F86800F096F90346002BCD
:100F600020D0FB681B68002B08D101F06FFFFB68E5
:100F70005B68184601F002FD01F07EFFFB6803F19B
:100F800024027B681046194601F0C4F9F86800F0A5
:100F90002BF900F09FFE0346002B7FF458AF01F0C1
:100FA00049FF55E7F86800F01FF900F093FE4FE79E
:100FB000F86800F019F900F08DFE4FF000031846B4
:100FC00007F12007BD4680BD80B585B000AFB86091
:100FD00079603A604FF000033B614FF0A00080F36E
:100FE0001188BB689B6B002B2ED0B868796800F025
:100FF000D3F8BB689B6B03F1FF32BB689A63BB6895
:101000005B6CB3F1FF3F11D1BB681B69002B14D09F
:10101000BB6803F11003184601F0E6F90346002B04
:101020000DD03B684FF001021A6009E0BB685B6CB1
:1010300003F10102BB685A6402E000BF00E000BF98
:101040004FF00103FB6002E04FF00003FB604FF044
:10105000000080F31188FB68184607F11407BD46AD
:1010600080BD00BF80B582B000AF386001F0EEFEF9
:101070003B689B6B7B6001F0FFFE7B68184607F1C5
:101080000807BD4680BD00BF80B482B000AF3860A5
:101090003B689B6B7B607B68184607F10807BD4681
:1010A00080BC704780B581B000AF3860386800F010
:1010B00073F93B681B68184601F0F0FD386801F0D1
:1010C000EDFD07F10407BD4680BD00BF80B583B0CC
:1010D00000AFB86079603A60BB681B6C002B0DD123
:1010E000BB681B68002B49D1BB685B68184601F0E0
:1010F000B1FCBB684FF000025A6042E03B68002B35
:101100001AD1BB689A68BB681B6C104679681A468E
:1011100002F020FEBB689A68BB681B6C1A44BB686F
:101120009A60BB689A68BB685B689A4228D3BB68C0
:101130001A68BB689A6024E0BB68DA68BB681B6CFD
:10114000104679681A4602F005FEBB68DA68BB688B
:101150001B6CC3F100031A44BB68DA60BB68DA6831
:10116000BB681B689A420CD2BB685A68BB681B6C90
:10117000C3F100031A44BB68DA6002E000BF00E07C
:1011800000BFBB689B6B03F10102BB689A6307F168
:101190000C07BD4680BD00BF80B582B000AF78604F
:1011A00039607B681B68002B19D07B68DA687B6824
:1011B0001B6C1A447B68DA607B68DA687B685B6862
:1011C0009A4203D37B681A687B68DA607B68DA68C6
:1011D0007B681B6C386811461A4602F0BBFD07F1AC
:1011E0000807BD4680BD00BF80B581B000AF386044
:1011F00001F02CFE14E03B685B6A002B15D03B68C5
:1012000003F12403184601F0EFF80346002B01D048
:1012100001F0C0F93B689B6C03F1FF323B689A64B4
:101220003B689B6C002BE6DC00E000BF3B684FF0A6
:10123000FF329A6401F020FE01F008FE14E03B68E2
:101240001B69002B15D03B6803F11003184601F011
:10125000CBF80346002B01D001F09CF93B685B6C96
:1012600003F1FF323B685A643B685B6C002BE6DCA1
:1012700000E000BF3B684FF0FF325A6401F0FCFD14
:1012800007F10407BD4680BD80B582B000AF38606D
:1012900001F0DCFD3B689B6B002B14BF0023012396
:1012A0007B6001F0E9FD7B68184607F10807BD4641
:1012B00080BD00BF80B482B000AF38603B689B6BDC
:1012C000002B14BF002301237B607B68184607F1C5
:1012D0000807BD4680BC704780B582B000AF38605B
:1012E00001F0B4FD3B689A6B3B68DB6B9A4214BF1C
:1012F000002301237B6001F0BFFD7B68184607F1E6
:101300000807BD4680BD00BF80B482B000AF386022
:101310003B689A6B3B68DB6B9A4214BF0023012346
:101320007B607B68184607F10807BD4680BC7047A4
:1013300080B483B000AF786039604FF00003BB60C9
:1013400021E0BA6845F63C73C2F2000353F832302C
:10135000002B14D1BA6845F63C73C2F20003396819
:1013600043F83210BA6845F63C73C2F200034FEA04
:10137000420202F10102796843F8221006E0BB68DC
:1013800003F10103BB60BB68092BDAD907F10C0735
:10139000BD4680BC704700BF80B482B000AF3860EB
:1013A0004FF000037B601BE07A6845F63C73C2F2A5
:1013B00000034FEA420202F1010253F822203B6887
:1013C0009A4209D17A6845F63C73C2F200034FF0A5
:1013D000000143F8321006E07B6803F101037B60F3
:1013E0007B68092BE0D907F10807BD4680BC704730
:1013F00080B588B001AFF860B9603B601346BB8030
:10140000BB881846F96A01F0BFF903467B617B6926
:10141000002B00F0AF807B691A6BBB8803F1FF33B0
:101420004FEA83031344BB61BB6923F00703BB612D
:10143000BB8800937869B9687A6A3B6B01F0BEF8A3
:10144000B869F9683A6801F07FFC03461A467B697F
:101450001A60BB6A002B02D0BB6A7A691A6001F07D
:10146000F5FC40F2F803C2F200031B6803F101022D
:1014700040F2F803C2F200031A6040F22003C2F205
:1014800000031B68002B0FD140F22003C2F20003BF
:101490007A691A6040F2F803C2F200031B68012B5C
:1014A00019D101F0CBF817E040F20813C2F20003A3
:1014B0001B68002B10D140F22003C2F200031B680E
:1014C000DA6A7B6A9A4207D840F22003C2F200032C
:1014D0007A691A6000E000BF7B69DA6A40F20013A3
:1014E000C2F200031B689A4206D97B69DA6A40F2AD
:1014F0000013C2F200031A6040F21C13C2F2000390
:101500001A687B691A6440F21C13C2F200031B685C
:1015100003F1010240F21C13C2F200031A607B695E
:10152000DA6A40F20413C2F200031B689A4206D939
:101530007B69DA6A40F20413C2F200031A607B6925
:10154000DA6A13464FEA830313444FEA83031A46C9
:1015500040F22403C2F200031A447B6903F104033E
:1015600010461946FFF7F2F94FF001033B6101F015
:1015700083FC02E04FF0FF333B613B69012B11D14B
:1015800040F20813C2F200031B68002B0AD040F29D
:101590002003C2F200031B68DA6A7B6A9A4201D216
:1015A00001F048FC3B69184607F11C07BD4680BDA9
:1015B00080B582B000AF386001F048FC40F22003F3
:1015C000C2F200031B683A689A4202D14FF000034E
:1015D0003B603B68002B05D140F22003C2F20003C0
:1015E0001B6800E03B687B607B6803F104031846DE
:1015F000FFF70EFA7B689B6A002B05D07B6803F12E
:1016000018031846FFF704FA7B6803F1040340F25D
:10161000CC00C2F200001946FFF798F940F2E0034F
:10162000C2F200031B6803F1010240F2E003C2F2C0
:1016300000031A6040F21C13C2F200031B6803F19E
:10164000010240F21C13C2F200031A6001F014FC04
:1016500040F20813C2F200031B68002B04D03B6861
:10166000002B01D101F0E6FB07F10807BD4680BD64
:1016700080B585B000AF786039604FF000033B6102
:1016800000F016FB7B681A683B681344BB607B68FC
:101690001A6840F2FC03C2F200031B689A4210D998
:1016A0007B681A68BB689A421CD940F2FC03C2F2FC
:1016B00000031B68BA689A4216D94FF001033B61D8
:1016C00013E07B681A68BB689A4207D840F2FC03B3
:1016D000C2F200031B68BA689A4206D94FF00103B0
:1016E0003B6102E000BF00E000BF7B68BA681A609F
:1016F0003B69002B39D040F22003C2F200031B6883
:1017000003F104031846FFF783F940F22003C2F205
:1017100000031B68BA685A6040F2FC03C2F200037F
:101720001B68BA689A4210D240F2B403C2F20003B6
:101730001A6840F22003C2F200031B6803F104039D
:1017400010461946FFF72AF90FE040F2B003C2F243
:1017500000031A6840F22003C2F200031B6803F181
:10176000040310461946FFF719F900F0B3FA0346CF
:10177000FB60FB68002B01D101F05CFB07F1140753
:10178000BD4680BD80B583B000AF38604FF0000328
:10179000BB603B68002B47D000F08AFA40F2FC03A4
:1017A000C2F200031A683B6813447B6040F22003D6
:1017B000C2F200031B6803F104031846FFF728F97F
:1017C00040F22003C2F200031B687A685A6040F2BC
:1017D000FC03C2F200031B687A689A4210D240F2FE
:1017E000B403C2F200031A6840F22003C2F20003FD
:1017F0001B6803F1040310461946FFF7CFF80FE00A
:1018000040F2B003C2F200031A6840F22003C2F2B1
:1018100000031B6803F1040310461946FFF7BEF8E6
:1018200000F058FA0346BB60BB68002B01D101F001
:1018300001FB07F10C07BD4680BD00BF80B583B03A
:1018400000AF386001F002FB3B68002B05D140F28D
:101850002003C2F200031B6800E03B687B607B68EA
:10186000DB6ABB6001F008FBBB68184607F10C0798
:10187000BD4680BD80B585B000AF786039604FF05F
:1018800000033B613B68042B02D94FF004033B602B
:1018900001F0DCFA40F22003C2F200031B687A6810
:1018A0009A4202D14FF000037B607B68002B05D188
:1018B00040F22003C2F200031B6800E07B68BB60BB
:1018C000BB685B6CFB60FA683B689A4264D03A681C
:1018D000FB689A4206D97B68002B0AD04FF00103BF
:1018E0003B6107E07B68002B04D14FF001033B61B3
:1018F00000E000BFBB685A6CBB68DB6A9A4202D149
:10190000BB683A68DA62BB683A685A643B68C3F1FC
:101910000502BB689A61BB685969FA6813464FEAC9
:10192000830313444FEA83031A4640F22403C2F2AE
:101930000003134499422AD1BB6803F104031846FB
:10194000FFF766F8BB68DA6A40F20413C2F20003DC
:101950001B689A4206D9BB68DA6A40F20413C2F2E5
:1019600000031A60BB68DA6A13464FEA8303134424
:101970004FEA83031A4640F22403C2F200031A44DA
:10198000BB6803F1040310461946FEF7DFFF3B690D
:10199000012B01D101F04EFA01F06EFA07F11407A4
:1019A000BD4680BD80B582B000AF386001F04EFA10
:1019B00040F22003C2F200031B683A689A4202D147
:1019C0004FF000033B603B68002B05D140F2200341
:1019D000C2F200031B6800E03B687B607B6803F198
:1019E00004031846FFF714F87B689B6A002B05D0A8
:1019F0007B6803F118031846FFF70AF87B6803F1C8
:101A0000040340F2E400C2F200001946FEF79EFF14
:101A100001F032FA3B68002B1AD140F20813C2F2EF
:101A200000031B68002B02D001F004FA10E040F222
:101A3000F803C2F200031B68012B07D140F2200318
:101A4000C2F200034FF000021A6001E000F098FBC0
:101A500007F10807BD4680BD80B483B000AF386091
:101A60004FF000037B603B68BB60BB685A6940F283
:101A7000E403C2F200039A420ED1BB689A6A40F2B4
:101A8000B803C2F200039A4206D0BB689B6A002BDF
:101A900002D14FF001037B607B68184607F10C0709
:101AA000BD4680BC704700BF80B582B000AF3860D3
:101AB0003B687B607B68002B48D040F22003C2F279
:101AC00000031B687A689A4240D001F0BFF9786839
:101AD000FFF7C2FF0346012B36D17B6803F10403F5
:101AE0001846FEF795FF7B68DA6A40F20413C2F2EB
:101AF00000031B689A4206D97B68DA6A40F2041335
:101B0000C2F200031A607B68DA6A13464FEA830365
:101B100013444FEA83031A4640F22403C2F200033F
:101B20001A447B6803F1040310461946FEF70EFFC2
:101B30007B68DA6A40F22003C2F200031B68DB6AAA
:101B40009A4201D301F076F901F096F907F10807FE
:101B5000BD4680BD80B583B000AF38604FF0000354
:101B60007B603B68BB60B868FFF776FF0346012BDC
:101B700049D140F20C13C2F200031B68002B38D18C
:101B8000BB68DA6A40F22003C2F200031B68DB6A1A
:101B90009A4234BF002301237B60BB6803F1040336
:101BA0001846FEF735FFBB68DA6A40F20413C2F24A
:101BB00000031B689A4206D9BB68DA6A40F2041334
:101BC000C2F200031A60BB68DA6A13464FEA830365
:101BD00013444FEA83031A4640F22403C2F200037F
:101BE0001A44BB6803F1040310461946FEF7AEFE23
:101BF00009E0BB6803F1180340F2B800C2F200002C
:101C00001946FEF7A3FE7B68184607F10C07BD4690
:101C100080BD00BF80B585B004AF45F2A823C0F2F7
:101C200000034FF0000200924FF0000201924FF0CB
:101C3000000202924FF00002039242F2AD50C0F255
:101C4000000019464FF050024FF00003FFF7D0FBA1
:101C500003463B603B68012B13D14FF0A00080F39B
:101C6000118840F20813C2F200034FF001021A601B
:101C700040F2FC03C2F200034FF000021A6001F0D0
:101C8000A9F807F10407BD4680BD00BF80B500AFCD
:101C90004FF0A00080F3118840F20813C2F2000355
:101CA0004FF000021A6001F0BFF8BD4680BD00BFD2
:101CB00080B400AF40F20C13C2F200031B6803F1C2
:101CC000010240F20C13C2F200031A60BD4680BC50
:101CD000704700BF90B582B000AF4FF000033B608B
:101CE00001F0B4F840F20C13C2F200031B6803F1D8
:101CF000FF3240F20C13C2F200031A6040F20C13E0
:101D0000C2F200031B68002B40F08C8040F2F80305
:101D1000C2F200031B68002B00F084804FF0000328
:101D20007B6036E004F118031846FEF771FE04F1FB
:101D300004031846FEF76CFEE26A40F20413C2F296
:101D400000031B689A4205D9E26A40F20413C2F20A
:101D500000031A60E26A13464FEA830313444FEA12
:101D600083031A4640F22403C2F200031A4404F12A
:101D7000040310461946FEF7E9FDE26A40F220032B
:101D8000C2F200031B68DB6A9A4202D34FF00103E0
:101D90007B6040F2B803C2F200031B68002B06D040
:101DA00040F2B803C2F20003DB68DB6801E04FF0E9
:101DB00000031C46002CB5D140F21013C2F2000300
:101DC0001B68002B18D00DE000F03CF940F2101316
:101DD000C2F200031B6803F1FF3240F21013C2F29B
:101DE00000031A6040F21013C2F200031B68002BBC
:101DF000EAD14FF001037B607B68012B06D040F2F3
:101E00001413C2F200031B68012B0BD14FF0010326
:101E10003B6040F21413C2F200034FF000021A605C
:101E200001F008F801F028F83B68184607F10807A8
:101E3000BD4690BD80B581B000AF01F007F840F21B
:101E4000FC03C2F200031B683B6001F015F83B681D
:101E5000184607F10407BD4680BD00BF80B400AF3F
:101E600040F2FC03C2F200031B681846BD4680BC6A
:101E7000704700BF80B400AF40F2F803C2F2000325
:101E80001B681846BD4680BC704700BF80B582B055
:101E900000AF3860FFF70CFF3B684FF000021A708C
:101EA0003B68184645F2B021C0F2000101F0A0FFE6
:101EB00040F20013C2F200031B6803F101037B60D0
:101EC0007B6803F1FF337B607A6813464FEA830334
:101ED00013444FEA83031A4640F22403C2F200037C
:101EE00013441B68002B12D07A6813464FEA830311
:101EF00013444FEA83031A4640F22403C2F200035C
:101F00001344386819464FF0520200F077FC7B68A2
:101F1000002BD5D140F2B003C2F200031B681B684E
:101F2000002B0AD040F2B003C2F200031B683868ED
:101F300019464FF0420200F061FC40F2B403C2F2D5
:101F400000031B681B68002B0AD040F2B403C2F2E6
:101F500000031B68386819464FF0420200F04EFC3F
:101F600040F2CC03C2F200031B68002B08D0386893
:101F700040F2CC01C2F200014FF0440200F03EFCFE
:101F800040F2E403C2F200031B68002B08D038685B
:101F900040F2E401C2F200014FF0530200F02EFCC7
:101FA000FFF798FE07F10807BD4680BD80B582B0F7
:101FB00000AF7860396000F049FF7A6840F2201382
:101FC000C2F200031A6040F22413C2F200037A68DE
:101FD0001A603B68A3F108037A681A4440F2281398
:101FE000C2F200031A6040F22C13C2F200034FF059
:101FF00001021A6000F040FF07F10807BD4680BDEE
:1020000080B581B000AF00F021FF40F22C13C2F286
:1020100000034FF000021A6000F02EFF40F2201380
:10202000C2F200031B681A4640F22413C2F20003F6
:102030001B68C3EB02033B603B68184607F10407CB
:10204000BD4680BD90B581B000AF40F20C13C2F226
:1020500000031B68002B40F0828040F2FC03C2F2B8
:1020600000031B6803F1010240F2FC03C2F200030B
:102070001A6040F2FC03C2F200031B68002B58D127
:1020800040F2B003C2F200031B683B6040F2B403AD
:10209000C2F200031A6840F2B003C2F200031A60F1
:1020A00040F2B403C2F200033A681A6040F2181317
:1020B000C2F200031B6803F1010240F21813C2F2DE
:1020C00000031A6035E0626840F2FC03C2F20003CC
:1020D0001B689A424FD804F104031846FEF798FC97
:1020E000A36A002B04D004F118031846FEF790FCF5
:1020F000E26A40F20413C2F200031B689A4205D957
:10210000E26A40F20413C2F200031A60E26A134664
:102110004FEA830313444FEA83031A4640F2240331
:10212000C2F200031A4404F1040310461946FEF7F4
:102130000DFC40F2B003C2F200031B681B68002BC9
:1021400007D040F2B003C2F200031B68DB68DB6813
:1021500001E04FF000031C46002CB4D10BE040F22C
:102160001013C2F200031B6803F1010240F21013C6
:10217000C2F200031A6007F10407BD4690BD00BF1C
:1021800080B481B000AF40F20C13C2F200031B68B0
:10219000002B14D040F21413C2F200034FF00102DE
:1021A0001A60B2E040F20413C2F200031B6803F1AC
:1021B000FF3240F20413C2F200031A6000E000BFD5
:1021C00040F20413C2F200031A6813464FEA830375
:1021D00013444FEA83031A4640F22403C2F2000379
:1021E00013441B68002BDDD040F20413C2F200033D
:1021F0001A6813464FEA830313444FEA83031A46CF
:1022000040F22403C2F2000313443B603B685B6866
:102210005A683B685A603B685A683B6803F1080398
:102220009A4204D13B685B685A683B685A603B68D5
:102230005B68DB681A4640F22003C2F200031A60B2
:1022400040F22C13C2F200031B68002B5DD040F259
:102250002003C2F200031B681A6C40F21003C2F2A2
:1022600000031B689A4250D040F22013C2F20003D0
:102270001B6803F1080240F22813C2F200031B6836
:102280009A423BD240F22003C2F200031B681A6C50
:1022900040F21003C2F200031A6040F22013C2F2AF
:1022A00000031B681A4640F2FC03C2F200031B68DD
:1022B000136040F22013C2F200031B6803F1040212
:1022C00040F22013C2F200031A6040F22013C2F25F
:1022D00000031B681A4640F21003C2F200031B6899
:1022E000136040F22013C2F200031B6803F10402E2
:1022F00040F22013C2F200031A6006E040F22C13F1
:10230000C2F200034FF000021A6007F10407BD4655
:1023100080BC704780B583B000AF7860396040F210
:102320002003C2F200031B6803F118037868194602
:10233000FEF734FB40F22003C2F200031B6803F1F6
:1023400004031846FEF764FB3B68B3F1FF3F0ED170
:1023500040F22003C2F200031B6803F1040340F2C1
:10236000E400C2F200001946FEF7F0FA37E040F24E
:10237000FC03C2F200031A683B681344BB6040F2DE
:102380002003C2F200031B68BA685A6040F2FC03E3
:10239000C2F200031B68BA689A4210D240F2B4033A
:1023A000C2F200031A6840F22003C2F200031B6865
:1023B00003F1040310461946FEF7F0FA0FE040F26D
:1023C000B003C2F200031A6840F22003C2F2000315
:1023D0001B6803F1040310461946FEF7DFFA07F104
:1023E0000C07BD4680BD00BF80B583B000AF38602C
:1023F0003B681B68002B03D03B68DB68DB6801E0AF
:102400004FF000037B607B6803F118031846FEF76A
:10241000FFFA40F20C13C2F200031B68002B2BD111
:102420007B6803F104031846FEF7F2FA7B68DA6A68
:1024300040F20413C2F200031B689A4206D97B687B
:10244000DA6A40F20413C2F200031A607B68DA6AA7
:1024500013464FEA830313444FEA83031A4640F2BC
:102460002403C2F200031A447B6803F104031046FC
:102470001946FEF76BFA09E07B6803F1180340F296
:10248000B800C2F200001946FEF760FA7B68DA6A0B
:1024900040F22003C2F200031B68DB6A9A4203D3B6
:1024A0004FF00103BB6002E04FF00003BB60BB686C
:1024B000184607F10C07BD4680BD00BF80B481B04F
:1024C00000AF386040F21813C2F200031A683B688C
:1024D0001A6040F2FC03C2F200031A683B685A60BB
:1024E00007F10407BD4680BC704700BF80B583B0CC
:1024F00000AF7860396000F0A9FC3B681B68B3F15D
:10250000FF3F03D14FF00003BB603AE07B681A68DD
:1025100040F21813C2F200031B689A420CD07B6889
:102520005A6840F2FC03C2F200031B689A4203D8C7
:102530004FF00103BB6024E040F2FC03C2F2000351
:102540001A687B685B68C3EB02023B681B689A42AF
:1025500014D23B681A687B68596840F2FC03C2F2E7
:1025600000031B68C3EB01031A443B681A607868D8
:10257000FFF7A4FF4FF00003BB6002E04FF0010340
:10258000BB6000F079FCBB68184607F10C07BD463C
:1025900080BD00BF80B400AF40F21413C2F200034C
:1025A0004FF001021A60BD4680BC704780B581B013
:1025B00000AF386000F094F8FCE700BF80B585B04C
:1025C00000AF3861F960BA607B60FB693B803B69B2
:1025D00003F134031A46FB68104619464FF00C020B
:1025E00001F01AFC3B694FF0000283F83F20BB6802
:1025F000042B02D94FF00403BB603B69BA68DA626E
:102600003B69BA685A643B6903F104031846FEF754
:102610008FF93B6903F118031846FEF789F93B6906
:102620003A691A61BB68C3F105023B699A613B696B
:102630003A695A6207F11407BD4680BD80B581B082
:1026400000AF4FF000033B6013E03A6813464FEAD7
:10265000830313444FEA83031A4640F22403C2F271
:10266000000313441846FEF73FF93B6803F10103EA
:102670003B603B68042BE8D940F28800C2F20000BE
:10268000FEF732F940F29C00C2F20000FEF72CF98E
:1026900040F2B800C2F20000FEF726F940F2CC008A
:1026A000C2F20000FEF720F940F2E400C2F200009E
:1026B000FEF71AF940F2B003C2F2000340F28802BA
:1026C000C2F200021A6040F2B403C2F2000340F208
:1026D0009C02C2F200021A6007F10407BD4680BDE9
:1026E00080B582B000AF40F2E003C2F200031B6885
:1026F000002B43D0FFF7DCFA40F2CC03C2F2000318
:102700001B68002B14BF002301233B60FFF7E2FA94
:102710003B68002B32D100F099FB40F2CC03C2F2AF
:1027200000031B68002B03D0164B5B68DB6801E0DD
:102730004FF000037B607B6803F104031846FEF74B
:1027400067F940F2F803C2F200031B6803F1FF329D
:1027500040F2F803C2F200031A6040F2E003C2F252
:1027600000031B6803F1FF3240F2E003C2F20003F2
:102770001A6000F081FB786800F0E0F807F10807C4
:10278000BD4680BDD400002080B583B000AF0346B5
:102790003960BB804FF0480000F0A4F90346BB60ED
:1027A000BB68002B23D03B68002B07D1BB884FEAC6
:1027B0008303184600F096F9034600E03B68BA68C8
:1027C0001363BB681B6B002B06D1B86800F066FA78
:1027D0004FF00003BB600AE0BB681A6BBB884FEA8E
:1027E000830310464FF0A5011A4601F0D1FABB68E9
:1027F000184607F10C07BD4680BD00BF80B58BB001
:1028000003AFB860796013463B707B68BB61BB69FE
:102810005B685A68BB695A60BB695A68BB6903F157
:1028200008039A4204D1BB695B685A68BB695A6065
:10283000BB695B68DB683B617B68FB61FB695B686C
:102840005A68FB695A60FB695A68FB6903F108031F
:102850009A4204D1FB695B685A68FB695A60FB695C
:102860005B68DB68FB60FB681B6B184600F02CF8AC
:102870000346FB82FB6803F134031A4697F90030E4
:10288000F968D1F82CC0F88AF968096CCDF800C055
:102890000190029140F23010C2F2000045F2B421E2
:1028A000C0F2000101F0DEFABB68184640F23011B8
:1028B000C2F2000101F09CFAFA683B699A42BBD16E
:1028C00007F12007BD4680BD90B481B000AF3860ED
:1028D0004FF0000406E03B6803F101033B6004F1A4
:1028E00001039CB23B681B78A52BF4D04FEA9403FC
:1028F0009CB22346184607F10407BD4690BC7047BA
:1029000080B584B000AF38603B68002B05D140F241
:102910002003C2F200031B6800E03B687B607B6819
:102920001B6BBB60B868FFF7CFFF0346FB60FB681B
:10293000184607F11007BD4680BD00BF80B581B0C5
:1029400000AF38603B681B6B184600F0A7F9386889
:1029500000F0A4F907F10407BD4680BD80B481B042
:1029600000AF40F22003C2F200031B683B603B68EB
:10297000184607F10407BD4680BC704780B582B099
:1029800000AF38603B687B607B68DA6A40F2200306
:10299000C2F200031B68DB6A9A4257D240F220035E
:1029A000C2F200031B68DB6AC3F105027B689A610F
:1029B0007B6859697B68DA6A13464FEA83031344DC
:1029C0004FEA83031A4640F22403C2F20003134481
:1029D000994233D17B6803F104031846FEF718F8D7
:1029E00040F22003C2F200031B68DA6A7B68DA62F5
:1029F0007B68DA6A40F20413C2F200031B689A4251
:102A000006D97B68DA6A40F20413C2F200031A6046
:102A10007B68DA6A13464FEA830313444FEA830361
:102A20001A4640F22403C2F200031A447B6803F101
:102A3000040310461946FDF789FF07E040F2200322
:102A4000C2F200031B68DA6A7B68DA6207F10807E2
:102A5000BD4680BD80B582B000AF38603B687B600A
:102A60003B68002B3AD07B68DA6A7B685B6C9A42E1
:102A700034D07B6803F104031846FDF7C9FF7B6877
:102A80005A6C7B68DA627B68DB6AC3F105027B689B
:102A90009A617B68DA6A40F20413C2F200031B6891
:102AA0009A4206D97B68DA6A40F20413C2F2000344
:102AB0001A607B68DA6A13464FEA830313444FEACD
:102AC00083031A4640F22403C2F200031A447B68CF
:102AD00003F1040310461946FDF738FF07F1080714
:102AE000BD4680BD80B588B000AF38604FF00003B0
:102AF0003B61FFF7DDF845F63473C2F200031B6853
:102B0000002B33D140F26412C2F2000245F6247366
:102B1000C2F200031A6045F62473C2F200034FF0BC
:102B200000025A6045F62C73C2F2000345F6C0520B
:102B30005A6045F62C73C2F200034FF000021A608F
:102B400040F26413C2F200037B617B6945F6C05218
:102B50005A607A6945F62C73C2F20003136045F699
:102B60003473C2F200034FF001021A603B68002B7D
:102B700012D045F2C823C0F200031B883A68134400
:102B80003B603B6803F00703002B05D03B6823F054
:102B9000070303F108033B603B68002B75D03A68DC
:102BA00045F6BF539A4270D845F62473C2F200032B
:102BB000BB6045F62473C2F200031B687B6004E02F
:102BC0007B68BB607B681B687B607B685A683B687E
:102BD0009A4203D27B681B68002BF1D17A6845F6D4
:102BE0002C73C2F200039A424FD0BB681A6845F2B8
:102BF000C823C0F200031B8813443B617B681A683A
:102C0000BB681A607B685A683B68C3EB020245F2F6
:102C1000C823C0F200031B884FEA43039A4226D917
:102C20007A683B681344FB607B685A683B68C3EB77
:102C30000202FB685A607B683A685A60FB685B680E
:102C4000FB6145F62473C2F20003BB6102E0BB697D
:102C50001B68BB61BB691B685A68FB699A42F6D363
:102C6000BB691A68FB681A60BB69FA681A6040F2AF
:102C70001403C2F200031A687B685B68C3EB0202AC
:102C800040F21403C2F200031A60FFF723F83B6915
:102C9000184607F12007BD4680BD00BF80B585B04E
:102CA00000AF38603B687B603B68002B35D045F255
:102CB000C823C0F200031B88C3F100037A681344E1
:102CC0007B607B68BB60FEF7F3FFBB685B683B61C2
:102CD00045F62473C2F20003FB6002E0FB681B6848
:102CE000FB60FB681B685A683B699A42F6D3FB6835
:102CF0001A68BB681A60FB68BA681A60BB685A68D1
:102D000040F21403C2F200031B681A4440F2140399
:102D1000C2F200031A60FEF7DDFF07F11407BD469B
:102D200080BD00BF80B400AF40F21403C2F20003C4
:102D30001B681846BD4680BC704700BF80B400AF1A
:102D4000BD4680BC704700BF80B483B000AFB860A0
:102D500079603A60BB68A3F10403BB60BB684FF0C5
:102D600080721A60BB68A3F10403BB607A68BB6819
:102D70001A60BB68A3F10403BB60BB684FF000029C
:102D80001A60BB68A3F11403BB603A68BB681A60A1
:102D9000BB68A3F12003BB60BB68184607F10C07B2
:102DA000BD4680BC704700BF064B19680868B0E894
:102DB000F00F80F309884FF0000080F311884EF087
:102DC0000D0E70472000002060480068006880F306
:102DD000088800DF80B500AF4EF62053CEF2000326
:102DE0004EF62052CEF20002126842F460021A60DF
:102DF0004EF62053CEF200034EF62052CEF20002E1
:102E0000126842F060421A6000F08CF840F2180339
:102E1000C2F200034FF000021A60FFF7D5FF4FF037
:102E200000031846BD4680BD80B400AFBD4680BCDF
:102E3000704700BF80B400AF4EF60453CEF20003DB
:102E40004FF080521A60BD4680BC704780B400AF1E
:102E50004FF0A00080F3118840F21803C2F2000383
:102E60001B6803F1010240F21803C2F200031A606A
:102E7000BD4680BC704700BF80B400AF40F218036D
:102E8000C2F200031B6803F1FF3240F21803C2F2E2
:102E900000031A6040F21803C2F200031B68002B03
:102EA00003D14FF0000080F31188BD4680BC70470D
:102EB000EFF309800C4B1A6820E9F00F10602DE940
:102EC00008404FF0A00080F31188FFF759F94FF048
:102ED000000080F31188BDE8084019680868B0E870
:102EE000F00F80F3098870472000002080B581B082
:102EF00000AF4EF60453CEF200034FF080521A603A
:102F00004FF000033B604FF0A00080F31188FFF703
:102F100099F84FF0000080F3118807F10407BD46CF
:102F200080BD00BF80B400AF4EF21403CEF20003A8
:102F30004CF24F321A604EF21003CEF200034FF003
:102F400007021A60BD4680BC7047000008ED00E033
:102F5000002808BF70474FF09D0200F01DBC00BF65
:102F6000004204BF014670474FF4806242F01D02E8
:102F7000B0FA80F18840521AC30A400503EB0251AF
:102F8000704700BF4B000ED25A0DA2F54072FF3AB7
:102F900009D4D2F11F0208DBC90241EA505040F0C7
:102FA0000040D0407047002070476FF0000070472D
:102FB000C0F3C751094208BF00F0004042004FEA89
:102FC00040704FEA121118BF01F1605128BF81F023
:102FD00000414FF08073D34238BF704701F1605118
:102FE00018BF41F4002170474FF4001313EB410F59
:102FF00024D24FEA4102B2F1E04324BFB3F5001CF2
:10300000DCF1FE5C0DD901F000414FEAC00241EA5B
:103010005070B2F1004F40EB830008BF20F0010078
:10302000704711F0804F04BF01F00040704701F07D
:10303000004040F0FE4040F40000704701D10042E3
:10304000F5D049004FEAC10141EA10704FEA300063
:1030500040F48000704700BF81F0004183F00043DE
:1030600083F00043F0B491EA030F00F18880841AE2
:1030700071EB030603D212197341001BB1419A4E42
:1030800016EA410F08BF5FE0B6EB410F98BF66E05C
:103090004FEA1154A4EB1357B14341F4801116EADF
:1030A000430F07BF00230022B34343F48013D7F13B
:1030B000200631D303FA06F5401941F1000122FA46
:1030C00007F5401923FA07F541EB050102FA06F26C
:1030D00011F4001F16D121F4801101EB0451F0BC52
:1030E000B2F1004F08BF10EA500F02D3013041F196
:1030F00000017D4BB3EB410F88BF7047090D0905F7
:103100000020704749085FEA30005FEA320228BFBA
:1031100042F001020134DEE7203F402F19D223FAAA
:1031200007F5401941F10001C7F12006124218BF0E
:10313000012203FA06F52A43CAE711EA560F04BF33
:1031400000200021F0BC704701F000410020F0BCDD
:10315000704721F4801101EB0451F0BC704700422C
:1031600018BF41F00101B6EB410F04BFF0BC70473E
:103170004FF0FE4141F478010020F0BC704783F02D
:103180000043841A00BF71EB030705D287F00047A4
:10319000001BB94112197B41534E16EA430FCCD0A4
:1031A000B6EB410F40F292800C0DA4EB1357C9020D
:1031B00041EA5051C00241F00041DB0243EA525360
:1031C000D20243F00043D7F1200660D302FA06FC96
:1031D000FA4003FA06F52A43FB401CEA0C0F18BF1D
:1031E00042F00102801A9941E30A6405640D11F06E
:1031F000404F2ED427D1002902BF01460020203C99
:10320000002961D0B1F5803F3FBF103C090441EA7D
:1032100010410004B1F1807F3FBF083C090241EA40
:1032200010610002B1F1805F3FBF043C090141EA37
:103230001071000111F0404F01BF023C890041EACA
:103240009071800009425FBF013C490041EAD071A2
:103250004000002C17DD420521F00041C00A40EA81
:103260004150C90A01EB045141EAC371B2F1004F68
:1032700050F1000041F10001B2F1004F08BF20F011
:103280000100F0BC70470020D907F0BC7047A7F1DF
:103290002007202F0CD2C7F1200603FA06F5FB40C9
:1032A0002A4318BF43F00103C01A61F100019BE7F4
:1032B00021F00041C00A40EA4150C90A01EB045123
:1032C000F0BC704700200021F0BC7047004218BFDE
:1032D00041F00101B6EB410F7FF44AAFB6EB430F6B
:1032E0003FF446AFF0BC70470000E0FFF0B5584F28
:1032F00081EA030517EA010E1EBF9EEA070F17EACF
:10330000030494EA070F65D04EEAD57EA64421EA6D
:10331000470141F4801123EA470343F48013A1FBE2
:103320000247A0FB036536197D41A1FB034747F126
:103330000003A0FB0217F619654153F1000309428F
:1033400018BF46F001064FF01407B3F5007F47F1B0
:10335000000734BF3F4A404ABEEB020E31D4C7F1EA
:10336000200403FA04F105FA04F025FA07F21143E8
:1033700026FA07F2104316FA04F421F480114FEAFA
:103380005E0741EA47010AD0B4F1004F50F1000056
:1033900041F10001B4F1004F08BF20F001002C4FB3
:1033A0001EEA070F10D041EACE71BE453CBFBDE812
:1033B000F04070472649002041EACE71BDE8F04058
:1033C00070471EEB020EF5D44FEACE710020BDE827
:1033D000F0407047394204BF01F000410020004234
:1033E00018BF41F001013B4204BF03F0004300223B
:1033F000124218BF43F0010307EA0304BC4218BF9E
:103400009EEA070F05D005F000410020BDE8F0401E
:10341000704721F0004123F00043B9420FD8BB426E
:103420000DD8002918BF002B09D005F0004141F04C
:10343000FE4141F470010020BDE8F04070474FF0BC
:10344000FE4141F478010020BDE8F04070470000E3
:103450000000F07F0000F03F0000E03FF0B581EA9F
:10346000030E0EF0004E814F17EA41051EBF95EA8C
:10347000070F17EA430494EA070F00F0C5806D0DAB
:10348000A5EB545707F580674FF0004646EAC12484
:1034900044EA5054C00246EAC32343EA5253D202DC
:1034A000801A9C4104D20018644180185C41013F9D
:1034B0005B084FEA32020025002140F001004FF086
:1034C000070604E0801A9C4136D340416441801ACB
:1034D0009C4136D340416441801A9C4136D34041DF
:1034E0006441801A9C4136D340416441801A9C411A
:1034F00036D340416441013E17D0801A9C4136D3F7
:1035000040416441801A9C4136D340416441801A55
:103510009C4136D340416441090201EB15612D0203
:10352000454020F0FF004540CCE7801A9C4156D32F
:1035300035E080185C41C8D20018644180185C41B5
:10354000C8D20018644180185C41C8D20018644198
:1035500080185C41C8D20018644180185C41C8D210
:1035600000186441013E17D080185C41C8D2001891
:10357000644180185C41C8D20018644180185C41E5
:10358000C8D200186441090201EB15612D024540C3
:1035900020F0FF004540CCE780185C411FD3420972
:1035A00018BF44F00104490101EBD56100F01F0090
:1035B00000EB451021F4801141EA0E01013041F188
:1035C0000001244208BF20F00100B7F5006F3EDA89
:1035D000013F49DD01EB0751BDE8F040704749016B
:1035E00001EBD56100F01F0000EB451021F48011C4
:1035F00041EA0E01B7F5006F29DA013F34DD01EB36
:103600000751BDE8F0407047004218BF41F001018A
:10361000124218BF43F00103B7EB410F2CBFB7EBC9
:10362000430F1CE0B7EB410F04BFB7EB430F16E0AD
:1036300017EA410F04BF17EA430F10E017EA410FE2
:1036400012D017EA430F02D0B7EB430F0CD04EF065
:10365000FE4141F470010020BDE8F04070474FF09A
:10366000FE4141F47801F6E77146F4E70000E0FF1F
:103670002DE9F0410D469846194640F200030446F4
:1036800017461046C3F6F073002200F0D5F890B14B
:10369000204629460022002300F0CEF8064670B9E5
:1036A000002200233846414600F0C6F80028C4BF77
:1036B0003446254645DD20462946BDE8F081414691
:1036C000384600F091F8064600F076F83A46434650
:1036D00000F0B2F8F0B9002E46DB02BF40F2000560
:1036E0003446C3F6F075E6D040F200074FF000080C
:1036F000C3F6F07716F0010F07D040463946224650
:103700002B46FFF7F3FD80460F46761023D1444643
:103710003D46D0E7002200232046294600F08CF8E1
:1037200000280EDB2046294600F0B8F800F0C4F966
:103730003A464346FFF7DAFD00F0B4F804460D467A
:10374000B9E701F0EBFB012303600E4B5D681C68D9
:1037500005F10045AFE72046294622462B46FFF7F4
:10376000C5FD04460D46C5E740F2000122462B4642
:103770000020C3F6F071FFF771FE764204460D4655
:10378000B2E700BFD05200009D22002808BF70475A
:1037900044BF404242F48072B0FA80F18840521A2D
:1037A00041064FEA102008BF10F0010F00EBC25095
:1037B00088BF0130704700BF004204BF0146704718
:1037C00010F000424FEA125242F4806242F01D02B1
:1037D00000D54042B0FA80F18840521AC30A400531
:1037E00003EB0251704700BF4B005A0DA2F5407227
:1037F000FF3A0FD4D2F11F020EDD11EA410F4FEA5A
:10380000C12141EA505040F0004020FA02F028BFA8
:103810004042704700207047004218BF43F0010348
:1038200013F5001F88BF21F0004111F0004058BF80
:103830006FF00040704700BF4FF4801C1CEB410F3D
:1038400098BF1CEB430F88BF18E050EA410C08BF3B
:1038500052EA430C20D0904204BF99421CE010F180
:10386000000F91EA030F58BF994208BF90422CBF46
:10387000D8176FEAE37040F001007047094218BFA3
:1038800040F001001B4218BF42F001021CEB400F48
:103890009CBF1CEB420FE2E70020704721F0004183
:1038A000704700BF2DE9F0415AA30CCB04460D46EA
:1038B000FFF7C2FF002800F399802046294657A34E
:1038C0000CCBFFF7B9FF002803DA00200021BDE888
:1038D000F08120462946FFF7E1FF52A30CCBFFF70A
:1038E000ABFF0028C0F28A80002200232046294630
:1038F000FFF7A2FF002880F2878040F20007002631
:10390000CBF6E07749A30CCB20462946FFF7EEFC27
:1039100002460B4630463946FFF7A4FBFFF764FF2B
:103920000646FFF749FF43A30CCB07468846FFF73F
:10393000DDFC22462B46FFF795FB40A30CCB04464B
:103940000D4638464146FFF7D1FC02460B4620465D
:103950002946FFF787FB074688463A464346FFF766
:10396000C5FC38A30CCB04460D46FFF7BFFC37A3BC
:103970000CCBFFF777FB22462B46FFF7B7FC40F254
:1039800000030022C3F6D073FFF76CFB3A464346B0
:10399000FFF7ACFC2FA30CCB0746884620462946F0
:1039A000FFF7A4FC2DA30CCBFFF75CFB22462B46B4
:1039B000FFF79CFC40F200030022C3F6E073FFF720
:1039C00051FB3A464346FFF74BFB02460B4638464F
:1039D0004146FFF743FD40F200030022C3F6E073C7
:1039E000FFF740FB721C00F03FF870E701F096FA19
:1039F000032303601B4B93E8030068E740F20001D8
:103A00000020C3F6F07162E740F200070026C3F61B
:103A1000E07777E7EF39FAFE422E8640D2BC7ADDB6
:103A20002B2386C02342920CA19CC73B3CF92F9EBE
:103A30002C15F73F000000000030E6BFA80C615CC9
:103A400010D02B3F1CDC586FA452F13EE0F6B36F50
:103A5000E4707C3F0938DE6F993F403FB3514271BB
:103A60008E71AC3FD052000070B500231646002284
:103A700005460C46FFF7E0FE80B1C4F30A539E19D9
:103A800040F2FE739E420CDC002E07DD24F0FE4364
:103A900023F47003284643EA065170BD002000213C
:103AA000FBE701F03BFA03230360024B93E80300BA
:103AB000F3E700BFD05200002DE9F04F81B004467B
:103AC0000D4600F0DBF870B920462946002200239D
:103AD000FFF7B2FE78B10022002320462946FFF707
:103AE000ABFE00280DDA614B1A685B681046194678
:103AF00001B0BDE8F08F5E4B1A685B6803F10043CC
:103B0000F4E7204629466A4600F006F94FA30CCB9D
:103B100004460D46FFF790FE002875DD40F20003D5
:103B2000C3F6F073204629460022FFF799FA4FF0BA
:103B3000FF3206460F4620462946FFF795FF40F222
:103B400000030022C3F6E073FFF78CFA02460B462F
:103B500030463946FFF782FC04460D4622462B4686
:103B600020462946FFF7C2FB06460F463A46314635
:103B70000223404800F0B4F83A46804689460323C1
:103B800031463D4800F084F832A30CCB82468B4688
:103B900040464946FFF764FA52465B46FFF75EFC33
:103BA00032463B46FFF7A2FB02460B46204629461B
:103BB000FFF79CFB804600988946FFF7FDFD27A391
:103BC0000CCB06460F46FFF791FB22462B4682465A
:103BD0008B4640464946FFF745FA02460B4650469B
:103BE0005946FFF73FFA1FA30CCB04460D4630465B
:103BF0003946FFF77BFB02460B4620462946FFF776
:103C000031FA02460B4671E7009B2046013B0093C8
:103C100040F20003C3F6E07329460022FFF720FAC2
:103C20004FF0FF3204460D46FFF71EFF40F200033F
:103C30000022C3F6E073FFF715FA02460B46204652
:103C40002946FFF70BFC04460D4687E7CD3B7F6610
:103C50009EA0E63F9AB5B312FF075040A80C615CE6
:103C600010D02BBF000000000030E63F00530000E2
:103C7000D0520000D8520000E8520000012841EB69
:103C8000010111F5001F8CBF01200020704700BF0B
:103C9000012B2DE9F0450E4600EBC30A1746D8BFAD
:103CA000084698461C46D8BF114613DD5546304697
:103CB000114635E90C00FFF7D5F9013C32463B4689
:103CC000FFF714FB012CF4D1A8F102086FEA0808F1
:103CD0000AEBC80A1AE90C00FFF7C4F9BDE8F08541
:103CE000F0B500EBC3051C4608460E4617461146C4
:103CF00015E90C00FFF7FAFA012C0CDDA5F1100311
:103D00000CCBFFF7AFF9013C32463B46FFF7EEFA2A
:103D1000083D012CF2D1F0BD70B5002316460022FB
:103D200005460C46FFF788FD88B12346C4F30A54C4
:103D3000A4F57E74063C346023F0FE4424F4700441
:103D400044F07E5444F4C0042846214670BD3060DF
:103D5000FAE700BF844640EA010313F0030F0DD1D8
:103D6000242A0BD32DE9F00FB1E8F80FA0E8F80FE3
:103D7000A2F12402242AF7D2BDE8F00F002A05D0D0
:103D800011F8013B00F8013B013AF9D16046704758
:103D90008446002A2AD010F0030F04D000F8011B3B
:103DA000013A23D0F7E7282A1CD3A2F128022DE9F3
:103DB000F00F01F0FF0141EA012141EA014141EA2E
:103DC00001610B460C460D460E460F468846894655
:103DD0008A468B46A0E8FA0F283AFBD2BDE8F00FDE
:103DE000283203D000F8011B013AFBD1604670472E
:103DF00010B403780BB9024604E0024612F8013F02
:103E0000002BFBD14FF00003CC5CD45403F1010331
:103E1000002CF9D110BC704710B4D2B10B78844695
:103E20000CF8013BBBB100F1020312F1FF3210D0DC
:103E300011F8014F03F8014C9C4603F10103002CDB
:103E4000F3D108E00CF8031003F1010312F1FF3283
:103E5000F8D110BC704712F1FF321CBF0023194685
:103E6000F0D1F6E70EB400B585B006AA52F8041BEF
:103E7000049202904FF0000303936FF0004301930C
:103E8000684600F049F805B05DF804EB03B07047F0
:103E90000FB400B54FF00A0001A901F055F85DF824
:103EA00004EB04B0704700BF10B50446C8B2A16867
:103EB00049B12368626803F1010C944508BF0020F2
:103EC000934238BFC854E3682BB1216862689142BD
:103ED00001D221469847236803F10103236010BDF6
:103EE00070B5154611F1FF3407D4C6B228463146E5
:103EF000FFF7DAFF14F1FF34F8D570BD00B510F00C
:103F0000100F07D100F40070002814BF30202020CB
:103F1000FFF7E6FF00BD00BF2DE9F04F92B0064667
:103F20000C460A924FF00003036045F2AC33C0F236
:103F30000003059300F0D0BF04F10105252908BF57
:103F4000002705D03046FFF7AFFF2C4600F0C4BF76
:103F500015F8010BA0F12003102B1CD8DFE803F0AB
:103F6000091B1B0C1B1B1B0F1B1B1B121B151B1BDD
:103F7000180047F04007EBE747F08007E8E747F411
:103F80000047E5E747F02007E2E747F01007DFE7E3
:103F900047F40077DCE72A2808D0A0F13003DBB231
:103FA000092B88BF4FF0000A10D91EE00A9B03F1CD
:103FB00004000A90D3F800A0BAF1000FBCBFCAF108
:103FC000000A47F0100715F8010B0EE04FF0000A49
:103FD0000AEB8A0A00EB4A0AAAF1300A15F8010B2B
:103FE000A0F13003DBB2092BF2D92AEAEA7ACDF844
:103FF00010A02E281CBF2C464FF0000A2FD12C46B3
:1040000014F8010B2A2808D0A0F13003DBB2092BE9
:1040100088BF4FF0000A09D91FE00A9B03F1040290
:104020000A92D3F800A014F8010B13E005F1020581
:104030004FF0000A0AEB8A0A00EB4A0AAAF1300A9A
:1040400015F8010C2C4605F10105A0F13003DBB297
:10405000092BEFD9BAF1000F01DB47F480776C2808
:104060000AD114F8010B6C2806BF47F0020714F8B8
:10407000010B47F001070BE0682809D114F8010B88
:10408000682806BF47F0080714F8010B47F004073B
:1040900078287ED8DFE810F079007D007D007D0073
:1040A0007D007D007D007D007D007D007D007D0028
:1040B0007D007D007D007D007D007D007D007D0018
:1040C0007D007D007D007D007D007D007D007D0008
:1040D0007D007D007D007D007D007D007D007D00F8
:1040E0007D008F007D007D007D007D007D007D00D6
:1040F0007D007D007D007D007D007D007D007D00D8
:104100007D007D007D007D007D007D007D007D00C7
:104110007D007D007D007D007D007D007D007D00B7
:104120007D00DA01DF01E4017D007D007D007D007E
:104130007D007D007D007D007D007D007D007D0097
:104140007D007D007D007D001F017D007D007D00E4
:104150007D007D007D007D007D007D007D0096005E
:104160004B01DC01E101E6017D004B017D007D009A
:104170007D007D00B300340108017D007D00D70083
:104180007D0041017D007D0021014FF0FF3000F0F6
:10419000B0BE45F68C73C2F200031D68002D00F01E
:1041A0009B86CDF800A00AAB019331463A46049BAA
:1041B000A84700F091BE30464FF02501FFF774FE8E
:1041C00000F08ABE0A9B03F104020A921D78049B48
:1041D00003F1FF3B384659463246FFF78FFE304623
:1041E0002946FFF761FE17F0100F00F075864FF0BB
:1041F000200059463246FFF773FE00F06DBE17F0FF
:10420000080F08D00A9B03F104020A921B68326867
:104210001A7000F061BE17F0020F0BD00A9B03F179
:1042200004020A921B6832681A604FF000025A605A
:1042300000F052BE0A9B03F104020A921B68326826
:104240001A6000F049BE0A9B03F104020A921B683F
:104250000293DDF80890484600F052FF8046C7F30D
:1042600000238245ACBF002303F00103002B18BFDD
:10427000D0460498C8EB000B384659463246FFF743
:104280003DFEB8F1000FAED04FF00005C24619F860
:1042900005103046FFF708FE05F10105A845F6D1E7
:1042A000D144CDF808909EE70A9B03F104020A92DC
:1042B0001B6817F0800F0CBF4FF0000B4FF0230B63
:1042C00019464FEAE1720291039247F480774FF06A
:1042D000080A00F0F6BC47F4005717F0800F08BF3B
:1042E0004FF0000B06D043F2580343F2780B7828C6
:1042F00018BF9B4617F4807F18BF27F400771AE099
:1043000017F0800F0CBF4FF0000B4FF0300B17F47D
:10431000807F18BF27F400770DE017F4807F0EBF71
:104320004FF0000B27F400774FF0000B03E047F449
:1043300080474FF0000B17F002020AD00A9B03F1EE
:1043400008010A9193E80003CDF80880CDF80C909D
:104350000EE0DDF828C00CF104030A93DCF800102D
:104360004FF0000388469946CDF80880CDF80C90B0
:1043700017F4804F3DD017F0040F09D0BDF8081096
:104380000FFA81F842464FEAE2730292039313E078
:1043900017F0080F0AD09DF8081001F0FF084FF041
:1043A0000009CDF80880CDF80C9005E0029B1A4674
:1043B0004FEAE2730292039302AB0CCB03990029FC
:1043C00003DB17F0200F0ED00AE0D2F1000863EBF8
:1043D0004309CDF80880CDF80C904FF02D0B2CE060
:1043E0004FF02B0B29E017F0400F18BF4FF0200BB8
:1043F00023E017F0040F0BD0BDF808108AB24FF07D
:10440000000390469946CDF80880CDF80C9014E052
:1044100017F0080F08D09DF8083003F0FF024FF0A6
:1044200000030292039308E03AB9DDF808C04FF0A8
:10443000000162460B460292039317F4807F18BF77
:1044400027F4007740F03D8400F03EBC47F400576D
:1044500047F4806708E047F4005747F4006703E03B
:1044600047F4005747F440670A9B03F108020A9299
:104470001D68D3F80480284641460290039117F442
:10448000807F08BF4FF0060A2846414600F0A8FD8D
:1044900060B117F4005F07BF45F2A033C0F200031C
:1044A00045F2A433C0F200030293D2E62846414607
:1044B000FFF7E4FB30B117F4005F0CBFD84B059B4E
:1044C0000293C6E6284641464FF000024FF0000333
:1044D000FFF7B2F958B907F44863B3F5406F06D156
:1044E00045F2B0310A46C0F200020292B1E6284617
:1044F00041464FF000024FF00003FFF79DF90028FE
:1045000009DA47F0600708F10043A8469946CDF85C
:104510000880CDF80C9002A903C98046894611AAEB
:10452000FFF7FAFB119A02EB420246F26763C6F20A
:10453000666383FB02134FEAE272C2EBA305119597
:1045400017F4806F00F02D8117F4006F0AD04046F9
:104550004946B1A30CCBFFF76FF9002802DBAA454F
:1045600000F31F81C5F1000000F000FE02460B467B
:1045700040464946FEF7BAFE8046894602460B464B
:10458000029203934FF000024FF00003FFF754F93B
:10459000002857D0404649464FF0000240F2000341
:1045A000C4F22403FFF748F900281DDB119D05F133
:1045B0000105404649464FF0000240F20003C4F2B4
:1045C0002403FEF74BFF804689464FF0000240F27D
:1045D0000003C4F22403FFF72FF90028E7DA40466E
:1045E000494602900391119502AA06CA884691464F
:1045F000084611464FF0000240F20003C3F6F07384
:10460000FFF71AF900281DDA119D05F1FF35404624
:1046100049464FF0000240F20003C4F22403FEF7C3
:1046200065FE804689464FF0000240F20003C3F663
:10463000F073FFF701F90028E7DB42464B46029290
:1046400003931195BAF1000F01D00AF1FF3A02A9C4
:1046500003C980468946CAF1000000F087FD4FF08B
:10466000000240F20003C3F6E073FEF73FFE02468D
:104670000B4640464946FEF7F5FC80468946014612
:104680004A4602910392404649464FF0000240F2EA
:104690000003C4F22403FFF7CFF8002811DB119BBD
:1046A00003F101031193404649464FF0000240F2E6
:1046B0000003C4F22403FEF7D1FE02460B46029229
:1046C0000393BAF1000F3BD007F40863B3F5006F12
:1046D00040F01284BAF1100FA8BF4FF0100A02A9DF
:1046E00003C980468946504600F040FD02460B460D
:1046F00040464946FEF7FAFD00F04CFC80460D4668
:1047000058EA05010CD119E00AF1FF3A4046294662
:104710004FF00A024FF0000300F0C2FC80460D4645
:10472000BAF1000F0CD0404629464FF00A024FF074
:10473000000300F0AFFC0143E6D0DDE34FF0000AD8
:1047400027F400620692049BA3F10509CAEB09094C
:1047500017F0800F01D009F1FF39069810F0600FB3
:1047600018BF09F1FF39119800F0FAFC6328C8BF9F
:1047700009F1FF3902AA06CA0846114600F00AFCF0
:104780000746884600F0FCFB02460B4602A903C917
:10479000FEF766FC02460B46029203934FF00105BA
:1047A000FAE0BAF1000F56D007F49063B3F5806FCA
:1047B00051D16FEA05039A44002D0BDB4046494670
:1047C0004FF0000240F20003C3F6F073FFF734F835
:1047D000002801DA0AF1010A0E2DC8BF4FF0000AC5
:1047E00039DCBAF1100FA8BF4FF0100A504600F0A4
:1047F000BDFC02460B4640464946FEF777FD4FF0AA
:10480000000240F20003C3F6E073FEF72BFC00F059
:10481000C1FB05468B4611E02D431CEBE2361A3FE7
:10482000A85300000AF1FF3A284659464FF00A0201
:104830004FF0000300F034FC05468B46BAF1000F40
:1048400009D0284659464FF00A024FF0000300F005
:1048500021FC0143E6D027F4806706971198A0F168
:104860001000CAF10003984212DB00F07FFC4FF009
:10487000FF32FFF7F9F802460B4640464946FEF77D
:10488000F1FB80468946CDF80880CDF80C9010E009
:10489000184600F06BFC4FF0FF32FFF7E5F80246D8
:1048A0000B4640464946FEF7DDFB02460B460292A8
:1048B0000393119B002B35DB102B1BDDA3F11003A1
:1048C000119302A903C907468846C3F1000000F00E
:1048D0004DFC02460B4638464146FEF707FD00F008
:1048E00059FB074688464FF000014FF00002029145
:1048F00003921EE002AB0CCB1046194600F04AFBB7
:104900000746884600F03CFB02460B4602A903C955
:10491000FEF7A6FB02460B46029203934FF00003FC
:10492000119306E04FF0000311934FF000074FF092
:1049300000084FF00003434504D806D14FF00A01A8
:10494000B94202D94FF001050EE0DFF8CC354FF047
:10495000010505F1010519695A6903F1080342458A
:1049600002D8F6D1B942F4D9DDF84490049BC9EBE2
:104970000309CAEB0909C5EB0909BAF1000F03D114
:10498000069810F0800F01D009F1FF39069911F057
:10499000600F18BF09F1FF3929EAE979CDF81090C5
:1049A000069A12F4047F18D14B46B3B14FF0200998
:1049B0000797CDF820802F4625461C4604F1FF348A
:1049C00030464946FFF770FA002CF7D104942C4684
:1049D0003D460DF11C0898E88001069810F0200F64
:1049E00008D010F0400F14BF2D212B213046FFF7C7
:1049F0005BFA08E0069911F0400F04D030464FF002
:104A00002001FFF751FA069A12F0100F18D1049BFB
:104A1000B3B14FF030090797CDF820802F462546D7
:104A20001C4604F1FF3430464946FFF73DFA002C9E
:104A3000F7D104942C463D460DF11C0898E88001FE
:104A400045F20839C0F2000909EBC509CDF81CA0F0
:104A5000099405F1FF3519E91800444522D801D120
:104A6000BB421FD8D3F1000A64EB440BFF1A68EB7A
:104A700004084FF03001AE468C46184621460CF132
:104A8000010C5FFA8CFC17EB0A0248EB0B031418BD
:104A900043EB0105A94208D801D1A04208D8174626
:104AA0009846ECE74FF0300104E07546614601E0BE
:104AB000754661463046FFF7F7F9A9F10809002D60
:104AC000C7D1DDF81CA0099C069A12F400680ED02C
:104AD000119B002B0BDD4FF0300703F1FF331193D7
:104AE00030463946FFF7E0F9119B002BF5DCBAF1AF
:104AF000000F05D1069B13F0800F40F0068287E07F
:104B000030464FF02E01FFF7CFF9BAF1000F04DD68
:104B1000BAF1100FB4BF55461025C5EB0A0ACDF8FF
:104B20001CA0B8F1000F13D002A903C9074688469C
:104B30001198C0EB050000F019FB02460B46384601
:104B40004146FEF7D3FB00F025FA0746884610E001
:104B500002AA06CA0F469046284600F007FB024606
:104B60000B4638464146FEF7C1FB00F013FA0746F4
:104B7000884645F20839C0F2000909EBC5090994D5
:104B800005F1FF3519E91800444522D801D1BB428F
:104B90001FD8D3F1000A64EB440BFF1A68EB04083A
:104BA0004FF03001AE468C46184621460CF1010C00
:104BB0005FFA8CFC17EB0A0248EB0B03141843EB6B
:104BC0000105A94208D801D1A04208D81746984645
:104BD000ECE74FF0300104E07546614601E07546B0
:104BE00061463046FFF760F9A9F10809002DC7D1E9
:104BF000099C079961B105F1300527460C4604F17F
:104C0000FF3430462946FFF74FF9002CF7D13C46D8
:104C1000069A12F4806F42D012F4005F14BF45214F
:104C200065213046FFF740F9119B002B09DA304629
:104C30004FF02D01FFF738F9119BC3F100031193D9
:104C400004E030464FF02B01FFF72EF9119B632B48
:104C50000FDD4FF0640593FBF5F303F13001C9B2AA
:104C60003046FFF721F9119B93FBF5F205FB123358
:104C700011934FF00A05119991FBF5F101F1300103
:104C8000C9B23046FFF710F9119B93FBF5F205FB13
:104C9000123303F13001C9B23046FFF705F9049B26
:104CA000002B00F019814FF0200527461C4604F127
:104CB000FF3430462946FFF7F7F8002CF7D13C4681
:104CC0000AE117F4807F01D14FF0010AA0F15800EA
:104CD000202800F2B180DFE800F022AFAFAFAFAF25
:104CE000AFAFAFAFAFAF1AAFAFAFAF1AAFAFAFAFFE
:104CF000AF1122AFAFAFAF1AAFAF2200029A039B42
:104D000052EA03091CBF00250BA83BD194E0DDF853
:104D10000880DDF80C9058EA090C4AD18CE0029A20
:104D2000039B52EA030E00F087804FF0000507F462
:104D300000510BA851B102F00F0C45F2FC38C0F243
:104D4000000818F80CC000F805C009E002F00F0CCC
:104D500045F20C49C0F2000919F80CC000F805C072
:104D600005F101054FEA121242EA03724FEA1313EA
:104D700052EA030CDED190469946CDF80880CDF872
:104D80000C905BE002F0070101F13001415505F1A3
:104D900001054FEAD20242EA43724FEAD30352EAD4
:104DA000030EEFD190469946CDF80880CDF80C90CF
:104DB00044E04FF0000507F400400290CDF818A041
:104DC000CDF81CB0BB46B2462746064656B105F0A4
:104DD0000303032B01BF12A94B192C2203F81C2C2F
:104DE00008BF013512AB03EB0504404649464FF0BE
:104DF0000A024FF0000300F04DF900F1300004F812
:104E00001C0C05F10105404649464FF00A024FF0DF
:104E1000000300F045F98046894650EA010CD5D1DF
:104E20005646DDF818A03C465F46DDF81CB0CDF8CC
:104E30000880CDF80C9001E04FF00005C5EB0A08A2
:104E400028EAE8780498C8EB000AC5EB0A0ABBF127
:104E5000FF0F88BF0AF1FF3ABBF1000F01D00AF142
:104E6000FF3A17F4007F06D1384651463246FFF725
:104E700045F84FF0000ABBF1FF0F04D9CBF307212F
:104E80003046FFF711F8BBF1000F04D05FFA8BF149
:104E90003046FFF709F8384651463246FFF72EF8FC
:104EA0004FF0300041463246FFF71AF815F1FF384F
:104EB00009D40BAB1D4415F8011D3046FEF7F4FF75
:104EC00018F1FF38F7D517F0100F05D04FF020007C
:104ED00051463246FFF704F8217800297FF42CA8C8
:104EE000B3682BB1326871688A423CBF0021995483
:104EF000306812B0BDE8F08F27F400670697049978
:104F0000A1F10509CAEB090925E430464FF02E014D
:104F1000FEF7CAFF01E600BF0853000045F63870EF
:104F2000C2F20000704700BF704700BF704700BF6B
:104F3000704700BF704700BF704700BF704700BF99
:104F4000704700BF704700BF30B504460D46FFF7FD
:104F5000F7FF45F69473C2F200031D6045F69073A7
:104F6000C2F200031C601A461368002BFCD1FFF745
:104F7000E9FF45F69473C2F20003186830BD00BF24
:104F800050EA010308BF70475FF4806242F03D02BF
:104F900000F041B84B001BD25A0DA2F54072FF3A07
:104FA00016D4D2F13F0216DBC90241EA5051C002C9
:104FB00041F00041202A24BF0846002102F01F02D0
:104FC000C2F12003D04011FA03F31843D1407047D7
:104FD0000020002170476FF000010846704700BFB5
:104FE000012841EB010111F5001F0CBF0120002039
:104FF000704700BF50EA010308BF704711F000423C
:105000004FEA125242F4806242F03D0203D500237F
:10501000404263EB0101002902BF01460020203A13
:10502000B1F5803F3FBF103A090441EA1041000446
:10503000B1F1807F3FBF083A090241EA10610002E6
:10504000B1F1805F3FBF043A090141EA10710001EC
:1050500011F0404F01BF023A890041EA907180008F
:1050600009425FBF490041EAD0714000013A83051F
:105070004FEAD02040EA41504FEAD12108BF10F05A
:10508000010F01EB025198BF7047013041F100015F
:10509000704700BF00B500F003F81046194600BD88
:1050A0002DE9F0004FF000044FF000054FF001062D
:1050B0004FF000078B4208BF824209D892185B412B
:1050C00002D2B6197F41F5D95FEA33034FEA3202C3
:1050D000994208BF904205D3801A61EB0301A419DD
:1050E00045EB07057F085FEA360603D25B084FEA07
:1050F0003202EDE702460B4620462946F0BC7047D7
:1051000000F1010110F0030F11D010F8012B002A5B
:1051100023D010F0030F0AD010F8012B002A1CD066
:1051200010F0030F03D010F8012B002A15D02DE941
:1051300070004FF001324FF0803350F8044BA4EB75
:10514000020525EA04051D4000D1F6E7A0F10400A0
:1051500070BC10F8012B002AFBD1A0EB01007047B6
:1051600080EAE073A3EBE0731846704770B504461D
:105170000028AEBF002644420126002CDEBF0022DC
:1051800040F20003C3F6F0731BDD4FF0000240F263
:105190000003C3F6F07345F2B435C0F2000514F015
:1051A000010F07D01046194695E80C00FEF79EF84F
:1051B00002460B464FEA6404002C02DD05F10805A7
:1051C000EDE74EB14FF0000040F20001C3F6F07180
:1051D000FEF744F902460B461046194670BD00BF63
:1051E0000A53797374656D4672657175656E63797E
:1051F0003A202564487A0A53797374656D4672655E
:105200007175656E63795F50776D436C6B3A2025DD
:1052100064487A0A53797374656D46726571756571
:105220006E63795F416463436C6B3A202564487A0E
:105230000A53797374656D4672657175656E63792D
:105240005F43616E436C6B3A202564487A0A000024
:10525000546573745461736B0A0000005465737471
:1052600000000000657272434F554C445F4E4F542E
:105270005F414C4C4F434154455F52455155495253
:1052800045445F4D454D4F52590A00002564203D6D
:105290003E2025642C2564203D3E202564205B258E
:1052A0002E326625255D0A0049444C450000000069
:1052B0000D0A00002573090925630925750925755F
:1052C0000925750D0A00000010000000E000000034
:1052D000000000000000F07FEDAF16204A62304071
:1052E00029BD56B31544E9BF77900D9CFE0B88C0CD
:1052F0007E2615FA838073400FCE674B80D541C060
:10530000000000000000F87F010000000000000025
:105310000A0000000000000064000000000000001F
:10532000E80300000000000010270000000000005B
:10533000A08601000000000040420F0000000000B5
:10534000809698000000000000E1F50500000000D4
:1053500000CA9A3B0000000000E40B540200000069
:1053600000E87648170000000010A5D4E80000000F
:1053700000A0724E1809000000407A10F35A000095
:105380000080C6A47E8D03000000C16FF28623005A
:1053900000008A5D78456301000064A7B3B6E00DA4
:1053A000696E6600494E46006E616E004E414E00C9
:1053B0003000000000000000000024400000000059
:1053C00000005940000000000088C34000000000B9
:1053D00084D797410080E03779C34143176E05B504
:1053E000B5B89346F5F93FE9034F384D321D30F912
:1053F0004877825A3CBF737FDD4F157530313233A9
:1054000034353637383941424344454630313233FA
:0C541000343536373839616263646566F4
:10541C00001BB700001BB7000024F40000127A0038
:0C542C00FF000000C05D0000AAAAAAAAB0
:0400000300000101F7
:00000001FF
